:100000000C943E000C945B000C945B000C945B0021
:100010000C945B000C945B000C945B000C945B00F4
:100020000C945B000C945B000C945B000C945B00E4
:100030000C945B000C945E040C94E7030C945B003E
:100040000C9454040C945B000C945B000C945B00C7
:100050000C9492040C9468040C945B000C945B0068
:100060000C945B000C945B000C945B000C945B00A4
:100070000C94A1010C9407020C942F0211241FBEB2
:10008000CFEFD4E0DEBFCDBF11E0A0E0B1E0EEECF9
:10009000FEE002C005900D92A435B107D9F711E03A
:1000A000A4E5B1E001C01D92A238B107E1F70E94BA
:1000B000AB060C9465070C9400001F93CF93DF935D
:1000C00080917001893008F496C069E086E591E07E
:1000D0000E94DD04C0915601C33519F0C33709F001
:1000E00074C0E7E5F1E09FE02EE03DE04CE05BE02E
:1000F0006AE08081863431F168F48334E9F028F4D1
:100100008134B1F0823401F515C08434B9F08534FE
:10011000D9F416C0833681F028F4813649F082364E
:1001200099F408C0853661F048F0863669F40AC053
:10013000608310C050830EC040830CC030830AC05F
:10014000208308C0908306C080538A3010F48083D7
:1001500001C01082319681E0EF35F80751F68091A9
:1001600057018295807F109159011295107F9091CF
:100170005A01192B20915B0190915D01D22FD295EC
:10018000D07F20E0C22F30915C0120E0C22BD32B26
:1001900020915E01C22B40E1949F90011124C22B5B
:1001A000D32B90915801AE01612F892B0E94C70576
:1001B00069E086E591E00E94DD0411111CC08C2FDE
:1001C000DF91CF911F910C94B90569E086E591E02C
:1001D0000E94DD0480E191E00E94F5046C2F70E044
:1001E00080E090E00E94010582E191E0DF91CF91F3
:1001F0001F910C94F504DF91CF911F910895019BFD
:1002000006C0029B06C0039906C083E0089581E002
:10021000089582E0089580E0089580E0089580E1E7
:1002200081B98FE080B982B914B817B880E68AB96D
:1002300013B816B819B815B815B815B85D9A5E9800
:1002400008950E940F010E94CC030E945A020E944E
:10025000BD0478940E9421060C94210614981092F3
:100260006001109262011092630110925F0110927E
:10027000650110926401809361011092CD008FE1BD
:100280008093CC0088ED8093C90086E08093CA00FB
:1002900008951F93CF93DF93EC01162F8091620195
:1002A000882321F083E291E00E94F50480915F01B0
:1002B000882321F08CE391E00E94F5048091620193
:1002C0008111FCCF80915F018111F8CF81E088839B
:1002D00029812F708091610130E1839FC001112439
:1002E000282B2983FE01319694E081E02191820F31
:1002F0009150E1F78D83149A81E090E00E943E04D2
:1003000081E080936201D0936701C09366011092EF
:1003100063018091C90080628093C900112321F09C
:10032000809162018111FCCFDF91CF911F910895DF
:1003300010925F01909365018093640110926001B7
:1003400008951F920F920FB60F9211242F933F938F
:100350004F938F939F93AF93BF93EF93FF934091EE
:10036000CE008091640190916501009709F441C02D
:1003700020915F012630E8F520916001211139C0FC
:1003800022E030E030936B0120936A0120915F01FD
:10039000FC01E20FF11D408380915F01811102C0D9
:1003A000413039F580915F018530F0F010926B019A
:1003B00010926A01E0916401F0916501DF011196EC
:1003C00094E081E02D91820F9150E1F7841309C0F0
:1003D00081818F7090916101891303C081E08093C6
:1003E000600110925F0105C080915F018F5F809373
:1003F0005F01FF91EF91BF91AF919F918F914F91CD
:100400003F912F910F900FBE0F901F9018951F9244
:100410000F920FB60F9211248F939F93EF93FF9338
:1004200080916301863068F4E0916601F091670184
:10043000E80FF11D90819093CE008F5F8093630150
:1004400005C08091C9008F7D8093C900FF91EF9115
:100450009F918F910F900FBE0F901F9018951F9234
:100460000F920FB60F9211248F939F9381E090E02B
:1004700090936901809368019F918F910F900FBEB7
:100480000F901F901895CF93DF9300D0CDB7DEB7B4
:1004900082E390E09A83898389819A819C0121502B
:1004A00031093A832983892BB9F70F900F90DF9197
:1004B000CF910895389A399A3A9A3B9A3C9A3D9A44
:1004C000209A219A3E9A3F9A0E944302419A439A67
:1004D000459A299A479A0E944302409A429A449A1E
:1004E000289A469A0C9443028330E9F028F481302C
:1004F00041F08230A1F50EC08430F1F0853079F5FD
:1005000024C0419A409A0E94430241980E944302AB
:10051000409823C0439A429A0E94430243980E9403
:10052000430242981AC0459A449A0E944302459851
:100530000E944302449811C0299A289A0E944302BB
:1005400029980E944302289808C0479A469A0E9418
:10055000430247980E94430246980C944302089530
:100560008330C9F028F4813041F0823041F50CC06D
:100570008430C1F0853019F51CC00E944302409AB6
:100580000E944302419A08950E944302429A0E94A7
:100590004302439A08950E944302449A0E944302F0
:1005A000459A08950E944302289A0E944302299A7C
:1005B00008950E944302469A0E944302479A089572
:1005C000833079F028F4813041F0823079F407C02B
:1005D000843049F0853051F408C0409A0895429A19
:1005E0000895449A0895289A0895469A0895833064
:1005F00079F028F4813041F0823079F407C08430FA
:1006000049F0853051F408C0409808954298089503
:10061000449808952898089546980895833079F06D
:1006200028F4813041F0823079F407C0843049F0F9
:10063000853051F408C0419A0895439A0895459A27
:100640000895299A0895479A0895833079F028F4F7
:10065000813041F0823079F407C0843049F0853030
:1006600051F408C041980895439808954598089515
:100670002998089547980895833079F028F48130B7
:1006800041F0823079F407C0843049F0853051F46C
:1006900008C0399A08953B9A08953D9A0895219A81
:1006A00008953F9A0895833079F028F4813041F01D
:1006B000823079F407C0843049F0853051F408C0A5
:1006C000399808953B9808953D9808952198089584
:1006D0003F980895833091F028F4813041F08230C2
:1006E000D9F407C0843079F08530B1F410C086B1F8
:1006F0000BC086B183FB882780F9089586B185FBFE
:10070000882780F9089583B186958170089586B110
:10071000881F8827881F089581E008951F93CF932D
:10072000DF93C82F162FD8E00E9443028C2F17FDAD
:1007300003C00E94250302C00E940E03110F0E94F5
:1007400043028C2F0E94E0020E9443028C2F0E94E1
:10075000F7020E944302D15039F78C2F0E945303B5
:100760000E9443028C2F0E94E0020E9443028C2FC1
:100770000E946A03D82F0E9443028C2F0E94F70226
:100780000E9443028C2F0E943C030E9443028D2F43
:10079000DF91CF911F91089582E284BD82E085BDF3
:1007A00097E297BD98BD80936E0010928000809371
:1007B000810086E080936F0086E286BBEAE8F0E085
:1007C000808191818C53964F9183808308951F92ED
:1007D0000F920FB60F9211248F939F9380918A00EE
:1007E00090918B008854944F90938B0080938A0053
:1007F00080916E0190916F01892B49F080916E017B
:1008000090916F01019790936F0180936E01809199
:100810006C0190916D01019690936D0180936C0134
:100820008091680190916901892B71F08091680134
:100830009091690101979093690180936801892BD8
:1008400019F414981092620180916A0190916B01E1
:10085000892B69F080916A0190916B0101979093C7
:100860006B0180936A01892B11F410925F019F91B3
:100870008F910F900FBE0F901F90189590936F015E
:1008800080936E0180916E0190916F01892BD1F759
:10089000089510926D0110926C01089520916C01E1
:1008A00030916D01C90108951F920F920FB60F92FA
:1008B00011240F900FBE0F901F9018951F920F924A
:1008C0000FB60F9211240F900FBE0F901F90189526
:1008D0001F920F920FB60F9211248F93EF93FF93F5
:1008E00080917601882389F08091760181508093F0
:1008F0007601E0917701F091780181918093C600B3
:10090000F0937801E093770105C08091C1008F7D5D
:100910008093C100FF91EF918F910F900FBE0F90C8
:100920001F9018951F920F920FB60F9211248F935C
:100930009F93EF93FF939091C60080917501882358
:1009400099F080917501815080937501E091720159
:10095000F09173019193F0937301E0937201809190
:1009600070018F5F80937001FF91EF919F918F9144
:100970000F900FBE0F901F9018951092C5008FE139
:100980008093C40088E98093C10086E08093C20010
:1009900010927501109276010895609376019093FC
:1009A0007801809377018091C10080628093C100BB
:1009B000809176018111FCCF08959093730180930B
:1009C000720160937501109270010895CF93DF93C7
:1009D0001F92CDB7DEB7898361E0CE0101960E94F8
:1009E000CD040F90DF91CF910895CF93DF93EC0169
:1009F00002C00E94E60489918111FBCFDF91CF9163
:100A000008954F925F926F927F928F929F92AF92D2
:100A1000BF92CF92DF92EF92FF920F931F93CF93EB
:100A2000DF9300D000D0CDB7DEB74B015C0109E009
:100A300010E0C12C9AECD92E9AE9E92E9BE3F92E0D
:100A40002AE0422E512C612C712C8C149D04AE0492
:100A5000BF0460F4C701B601A30192010E942C07F4
:100A600069017A010150110981F732C082E0C8168C
:100A7000D104E104F10460F18AE0482E512C612C8C
:100A8000712CC501B401A70196010E942C07822F89
:100A9000805D29833A834B835C830E94E60429812D
:100AA0003A814B815C81C701B6010E941C07861AFE
:100AB000970AA80AB90AC701B601A30192010E94C8
:100AC0002C0769017A012230310541055105C8F62C
:100AD000882D805D0F900F900F900F90DF91CF9138
:100AE0001F910F91FF90EF90DF90CF90BF90AF904C
:100AF0009F908F907F906F905F904F900C94E60442
:100B0000CF93C82FA82FA295AF70B0E0A050BF4FD1
:100B10008C910E94E604CF70EC2FF0E0E050FF4F84
:100B20008081CF910C94E604CF93C82F892F0E9427
:100B300080058C2FCF910C9480051F93CF93DF936A
:100B400000D0CDB7DEB7182F892F6A8379830E9432
:100B50008005812F0E9480057981872F0E94800562
:100B60006A81862F0F900F90DF91CF911F910C9487
:100B70008005CF93DF93D82FC0E06D2F8C2F0E947C
:100B8000FE05CF5FC630C9F7DF91CF910895FF9280
:100B90000F931F93CF93DF931F92CDB7DEB7082F2C
:100BA000162FF42E59830E9474020E94430264E3BC
:100BB000802F0E948E035981811119C0252F30E0AA
:100BC00021703327612F660F622B802F0E948E03C6
:100BD0006F2D802F0E948E030E944302802F0F9062
:100BE000DF91CF911F910F91FF900C94B0020F9065
:100BF000DF91CF911F910F91FF9008950F931F9355
:100C0000CF93DF93082F162F1F77412F50E062E01C
:100C10000E94C705C12FD0E0D160AE0163E0802FF4
:100C20000E94C705412F50E062E0802F0E94C70557
:100C3000AE0163E0802FDF91CF911F910F910C9453
:100C4000C705CF93C1E040E050E06FE08C2F0E94D9
:100C5000C70540E050E06FE08C2F0E94C70540E0E0
:100C600050E06FE08C2F0E94C70540E050E06FE03D
:100C70008C2F0E94C70540E050E064E08C2F0E945A
:100C8000C70540E050E065E08C2F0E94C70542E0B8
:100C900050E067E08C2F0E94C7054FEF50E06AE0FC
:100CA0008C2F0E94C7054FEF51E06BE08C2F0E9404
:100CB000C70540EC51E069E18C2F0E94C70540EE6A
:100CC00051E06AE18C2F0E94C70540E051E062E2EA
:100CD0008C2F0E94C70540E051E065E28C2F0E94F6
:100CE000C7054CE050E06FE28C2F0E94C70540E042
:100CF00050E062E08C2F0E94C70540E051E063E0C5
:100D00008C2F0E94C705CF5FC33009F09CCFCF91D5
:100D1000089549E551E063E081E00E94C70584EF52
:100D200091E00E943E04F5CF1F93CF93DF93882379
:100D300019F0C2E0D0E002C0CAE0D0E011E0AE019C
:100D400067E0812F0E94C7051F5F1630C1F7DF9152
:100D5000CF911F910895CF93DF93CDB7DEB72C9736
:100D60000FB6F894DEBF0FBECDBF0E94210186E111
:100D700091E00E94F50469E086E591E00E94DD04BF
:100D800085E00E942E018E010F5F1F4FC8010E9457
:100D9000980183E0F82E81E090E00E943E040E94DA
:100DA0005D00809160018823B1F38A81982F9F7044
:100DB000953089F782958F708065888782E090E012
:100DC0000E943E048B81843051F08830C1F0823023
:100DD00031F5F9860E94FF008A871B8624C0198698
:100DE0001A861B8661E0CE0107960E944901EC80BD
:100DF000C8010E9498018E2D0E94B905CCCF19869A
:100E00001A861B8661E0CE0107960E944901EC809C
:100E1000C8010E9498018E2D0E949406BCCF91E0DB
:100E200099871A868B8761E0CE0107960E94490157
:100E3000C8010E949801AFCFDB018F939F930E945E
:100E40004E07BF91AF91A29F800D911DA39F900D62
:100E5000B29F900D11240895A1E21A2EAA1BBB1B6C
:100E6000FD010DC0AA1FBB1FEE1FFF1FA217B30776
:100E7000E407F50720F0A21BB30BE40BF50B661F8C
:100E8000771F881F991F1A9469F760957095809550
:100E900090959B01AC01BD01CF0108950E945907B7
:100EA000A59F900DB49F900DA49F800D911D1124BE
:100EB0000895A29FB001B39FC001A39F01D0B29F2C
:0E0EC000700D811D1124911D0895F894FFCF2F
:100ECE0030313233343536373839616263646566B2
:100EDE003F003F0D0A000D0A506F77657220757046
:100EEE000D0A0042434D65737361676553656E6409
:100EFE002042435458427573790D0A0042434D65A2
:100F0E00737361676553656E642042435258506F28
:040F1E00730D0A0045
:00000001FF
