:1000000019C028C027C026C025C024C023C022C0D4
:1000100021C020C01FC0B6C2D4C11CC03FC21AC07C
:1000200019C018C097C0FCC023C114C013C012C0AF
:1000300011C010C011241FBECFEFD2E0DEBFCDBF74
:1000400011E0A0E0B1E001C01D92AD32B107E1F7CF
:10005000A3D26DC3D5CF90E19093010197E0909327
:100060000201809303011092040161E080E091E0BD
:100070001BC05C98109207011092090110920A01AE
:100080001092060110920C0110920B01809308014E
:100090001092C5008FE18093C40088E58093C10071
:1000A00086E08093C20008950F931F93CF93DF9350
:1000B0001F92CDB7DEB78C01809109018111FCCF71
:1000C000809106018111F8CF81E0F80180832181C0
:1000D0002F7080910801F0E18F9FC0011124282B1F
:1000E000F8012183319681E091E02191820F9F5F99
:1000F0009530D9F7F80185835C9A81E090E06983B7
:10010000B7D181E08093090110930E0100930D0196
:1001100010920A018091C10080628093C1006981C0
:10012000662321F0809109018111FCCF0F90DF91AE
:10013000CF911F910F9108951092060190930C0199
:1001400080930B0110920701E1ECF0E08081806860
:10015000808308951F920F920FB60F9211242F9350
:100160003F934F938F939F93AF93BF93EF93FF93DF
:100170004091C60080910B0190910C01009709F409
:1001800041C0209106012630E8F520910701211198
:1001900039C022E030E030932201209321012091E8
:1001A0000601FC01E20FF11D4083809106018111DF
:1001B00002C0413039F5809106018530F0F010928F
:1001C000220110922101E0910B01F0910C01DF015D
:1001D000119694E081E02D91820F9150E1F7841304
:1001E00009C081818F7090910801891303C081E05B
:1001F000809307011092060105C0809106018F5F70
:1002000080930601FF91EF91BF91AF919F918F91E4
:100210004F913F912F910F900FBE0F901F90189507
:100220001F920F920FB60F9211248F939F93EF930B
:10023000FF9380910A01863068F4E0910D01F091FE
:100240000E01E80FF11D90819093C6008F5F80939F
:100250000A0105C08091C1008F7D8093C100FF918C
:10026000EF919F918F910F900FBE0F901F90189557
:100270001F920F920FB60F9211248F939F9381E0DC
:1002800090E090931F0180931E019F918F910F909A
:100290000FBE0F901F901895359B0EC0349B0EC05B
:1002A000339B0EC0329B0EC0319B0EC0309B0EC0E4
:1002B0004B990EC087E0089581E0089582E008958B
:1002C00083E0089584E0089585E0089586E0089528
:1002D00080E00895EFE0F1E0A6E1B1E08FEF119248
:1002E0008D9391E0E631F907D1F7089580FF03C0BF
:1002F0009091160102C090910F019093200181FF0F
:1003000003C09091170102C09091100190932701B2
:1003100082FF03C09091180102C090911101909347
:10032000230183FF03C09091190102C09091120133
:1003300090932A0184FF03C090911A0102C090910A
:1003400013019093290185FF03C090911B0102C006
:100350009091140190931D0186FF03C080911C01B0
:1003600002C080911501809326010895982F915025
:10037000973058F4282F30E02150310981E090E087
:1003800001C0880F2A95EAF701C080E0AFCF82E074
:1003900084BD85BD97E297BD98BD80936E00109295
:1003A00080008093810086E080936F0086E286BBA8
:1003B000EAE8F0E0808191818C53964F91838083AD
:1003C00008951F920F920FB60F9211248F939F934F
:1003D00080918A0090918B008C53964F90938B0064
:1003E00080938A0080912B0190912C01892B49F0F8
:1003F00080912B0190912C01019790932C01809377
:100400002B01809124019091250101969093250163
:100410008093240180911E0190911F01892B71F01E
:1004200080911E0190911F01019790931F0180936D
:100430001E01892B19F45C98109209018091210109
:1004400090912201892B69F08091210190912201E4
:1004500001979093220180932101892B11F410922E
:1004600006019F918F910F900FBE0F901F901895CE
:1004700090932C0180932B0180912B0190912C0162
:10048000892BD1F708951092250110922401089527
:100490002091240130912501C90108951F920F92E6
:1004A0000FB60F9211248F939F93809128018F5F35
:1004B0008093280180912001882341F090912001B0
:1004C00080912801981710F05D9801C05D9A809185
:1004D000280190912701992339F0909127018C5D93
:1004E000981710F05E9801C05E9A80912801909153
:1004F0002301992339F090912301885B981710F01C
:100500005F9801C05F9A8091280190912A019923F8
:1005100039F090912A018459981710F0289801C059
:10052000289A8091280190912901992339F090917E
:1005300029018057981710F05A9A01C05A98809153
:10054000280190911D01992339F090911D018C543F
:10055000981710F0299A01C029988091280190914C
:100560002601992339F0909126018852981710F0AE
:100570002A9A01C02A989F918F910F900FBE0F90D9
:100580001F9018951F920F920FB60F9211240F9083
:100590000FBE0F901F901895CF93DF93CDB7DEB7A6
:1005A00027970FB6F894DEBF0FBECDBF87E084B9A2
:1005B00017B884EF8AB913B88FE386B988E089B990
:1005C00089DE80E0D3DEE3DE789481E052DDEE2444
:1005D000E394F12CEC0EFD1EC701AEDD0EEF1FEF14
:1005E000B12CAA24A394C12CD12C02C00150110912
:1005F00081E090E03DDF8091200180910701882318
:1006000009F471C08A81382F3F70313009F069C018
:1006100082958F7080618093010182E090E03F833A
:1006200027DF2B813F81213009F45BC008F458C0DB
:10063000263021F02B3009F048C00EC08C8156DEE8
:1006400010920201109203011092040161E080E017
:1006500091E02ADDA12C45C0109203011092040103
:100660008C81282F22952F7083FB992790F9482F92
:100670004770440F440F4C3109F44FEF2F3081F491
:10068000E6E1F1E0AFE0B1E0992311F0408301C071
:100690004C933196119681E0ED31F807A9F71BC014
:1006A000273058F430E0F901992319F0EA5EFE4F43
:1006B00002C0E15FFE4F40830EC091E090930201C3
:1006C000909303018093040106C0309302011092BD
:1006D00003012093040161E080E091E0E5DC01C0CA
:1006E000D12CC70129DDD1101DC0D6DD982E8B1568
:1006F00069F0B1DCB92C20E04AEFD42E14C0C394C9
:10070000233020F48B2DA7DC3AEFD32EAA2009F456
:100710006DCFC801880F892F881F990B919587701D
:1007200025DE64CF2C2DDA94C22E49F3EFCFF89456
:02073000FFCFF9
:00000001FF
