:1000000019C028C027C026C025C024C023C022C0D4
:1000100021C020C01FC0D1C2E1C11CC04CC21AC047
:1000200019C018C097C0FCC023C114C013C012C0AF
:1000300011C010C011241FBECFEFD2E0DEBFCDBF74
:1000400011E0A0E0B1E001C01D92A033B107E1F7DB
:10005000BED287C3D5CF90E19093010197E09093F2
:100060000201809303011092040161E080E091E0BD
:100070001BC05C98109207011092090110920A01AE
:100080001092060110920C0110920B01809308014E
:100090001092C5008FE18093C40088E58093C10071
:1000A00086E08093C20008950F931F93CF93DF9350
:1000B0001F92CDB7DEB78C01809109018111FCCF71
:1000C000809106018111F8CF81E0F80180832181C0
:1000D0002F7080910801F0E18F9FC0011124282B1F
:1000E000F8012183319681E091E02191820F9F5F99
:1000F0009530D9F7F80185835C9A81E090E06983B7
:10010000C4D181E08093090110930E0100930D0189
:1001100010920A018091C10080628093C1006981C0
:10012000662321F0809109018111FCCF0F90DF91AE
:10013000CF911F910F9108951092060190930C0199
:1001400080930B0110920701E1ECF0E08081806860
:10015000808308951F920F920FB60F9211242F9350
:100160003F934F938F939F93AF93BF93EF93FF93DF
:100170004091C60080910B0190910C01009709F409
:1001800041C0209106012630E8F520910701211198
:1001900039C022E030E030932401209323012091E4
:1001A0000601FC01E20FF11D4083809106018111DF
:1001B00002C0413039F5809106018530F0F010928F
:1001C000240110922301E0910B01F0910C01DF0159
:1001D000119694E081E02D91820F9150E1F7841304
:1001E00009C081818F7090910801891303C081E05B
:1001F000809307011092060105C0809106018F5F70
:1002000080930601FF91EF91BF91AF919F918F91E4
:100210004F913F912F910F900FBE0F901F90189507
:100220001F920F920FB60F9211248F939F93EF930B
:10023000FF9380910A01863068F4E0910D01F091FE
:100240000E01E80FF11D90819093C6008F5F80939F
:100250000A0105C08091C1008F7D8093C100FF918C
:10026000EF919F918F910F900FBE0F901F90189557
:100270001F920F920FB60F9211248F939F9381E0DC
:1002800090E090932101809320019F918F910F9096
:100290000FBE0F901F901895359B10C0349B10C057
:1002A000339B10C0329B10C0319B10C0309B10C0DC
:1002B0004B9B10C01C9910C088E0089581E0089500
:1002C00082E0089583E0089584E0089585E008952C
:1002D00086E0089587E0089580E00895EFE0F1E07A
:1002E000A7E1B1E08FEF11928D9391E0E731F9072B
:1002F000D1F7089580FF03C09091170102C090913B
:100300000F019093220181FF03C09091180102C058
:10031000909110019093290182FF03C090911901DF
:1003200002C0909111019093250183FF03C0909129
:100330001A0102C09091120190932C0184FF03C016
:1003400090911B0102C09091130190932B0185FFA6
:1003500003C090911C0102C09091140190931F0161
:1003600086FF03C090911D0102C0909115019093EA
:10037000280187FF03C080911E0102C080911601F1
:1003800080932F010895982F9150983058F4282F7A
:1003900030E02150310981E090E001C0880F2A95BA
:1003A000EAF701C080E0A6CF82E084BD85BD97E278
:1003B00097BD98BD80936E0010928000809381005D
:1003C00086E080936F0086E286BBEAE8F0E08081F9
:1003D00091818C53964F9183808308951F920F9241
:1003E0000FB60F9211248F939F9380918A00909162
:1003F0008B008C53964F90938B0080938A00809152
:100400002D0190912E01892B49F080912D01909121
:100410002E01019790932E0180932D01809126014A
:100420009091270101969093270180932601809156
:10043000200190912101892B71F0809120019091F0
:10044000210101979093210180932001892B19F4B8
:100450005C98109209018091230190912401892BCD
:1004600069F08091230190912401019790932401D8
:1004700080932301892B11F4109206019F918F9193
:100480000F900FBE0F901F90189590932E018093A0
:100490002D0180912D0190912E01892BD1F7089586
:1004A0001092270110922601089520912601309183
:1004B0002701C90108951F920F920FB60F921124C0
:1004C0008F939F9380912A018F5F80932A0180915F
:1004D0002201882341F09091220180912A019817EE
:1004E00010F05D9801C05D9A80912A0190912901D8
:1004F000992339F090912901815E981710F05E9848
:1005000001C05E9A80912A0190912501992339F0CA
:1005100090912501825C981710F05F9801C05F9A56
:1005200080912A0190912C01992339F090912C010E
:10053000835A981710F0289801C0289A80912A01B0
:1005400090912B01992339F090912B0184589817A1
:1005500010F05A9A01C05A9880912A0190911F0177
:10056000992339F090911F018556981710F0299A18
:1005700001C0299880912A0190912801992339F08E
:10058000909128018654981710F02A9A01C02A9851
:1005900080912A0190912F01992339F090912F0198
:1005A0008752981710F02D9A01C02D989F918F9126
:1005B0000F900FBE0F901F9018951F920F920FB6BD
:1005C0000F9211240F900FBE0F901F901895CF938C
:1005D000DF93CDB7DEB727970FB6F894DEBF0FBE17
:1005E000CDBF8FE284B917B884EF8AB980E183B9AF
:1005F0008FE386B988E089B971DE80E0C4DED4DE9D
:10060000789481E036DDEE24E394F12CEC0EFD1EAF
:10061000C70192DD0EEF1FEFB12CAA24A394C12CC9
:10062000D12C02C00150110981E090E02EDF8091B1
:100630000701882309F471C08A81382F3F70313057
:1006400009F069C082958F7080618093010182E01A
:1006500090E03F831ADF2B813F81213009F45BC09A
:1006600008F458C0263021F02B3009F048C00EC0E5
:100670008C8140DE1092020110920301109204015D
:1006800061E080E091E010DDA12C45C010920301F3
:10069000109204018C81282F22952F7083FB9927BB
:1006A00090F9482F4770440F440F4C3109F44FEF35
:1006B0002F3081F4E7E1F1E0AFE0B1E0992311F0F0
:1006C000408301C04C933196119681E0EF31F807D9
:1006D000A9F71BC0283058F430E0F901992319F02C
:1006E000E95EFE4F02C0E15FFE4F40830EC091E025
:1006F00090930201909303018093040106C030930C
:100700000201109203012093040161E080E091E076
:10071000CBDC01C0D12CC7010FDDD1101DC0BCDD69
:10072000982E8B1569F097DCB92C20E04AEFD42E77
:1007300014C0C394233020F48B2D8DDC3AEFD32EDC
:10074000AA2009F46FCFC801880F892F881F990B41
:100750009195877018DE66CF2C2DDA94C22E49F35E
:06076000EFCFF894FFCF7B
:00000001FF
