:1000000026C035C034C033C032C031C030C02FC06C
:100010002EC02DC02CC0C6C413C429C0B1C427C073
:1000200026C025C0F8C17CC2C0C221C020C01FC0EC
:100030001EC01DC0E2C4F7C40FC527C570C593C557
:100040009EC5B6C5041A1B021C1D17404448112446
:100050001FBECFEFD2E0DEBFCDBF11E0A0E0B1E028
:1000600001C01D92A731B107E1F738D0CCC5C8CF88
:10007000CF93DF93CDB7DEB784E290E02CE3FC01B1
:10008000208387E290E0FC0110828AE290E028E081
:10009000FC01208383E290E0FC01108286E290E084
:1000A000FC01108289E290E0FC01108285E290E080
:1000B000FC01108285E290E0FC01108285E290E074
:1000C000FC011082DF91CF910895CF93DF93CDB7DC
:1000D000DEB7CEDF76D3DF91CF910895CF93DF9354
:1000E000CDB7DEB72E970FB6F894DEBF0FBECDBFEB
:1000F000ECDF85E290E025E230E0F9012081277F06
:10010000FC01208385E290E025E230E0F9012081C6
:100110002F7EFC01208385E290E025E230E0F901AA
:1001200020812F7DFC012083789482E0A3D0CE0132
:10013000099652D1198206C088EE93E0F2D38981E4
:100140008F5F898389818C33B8F3198208C080E27C
:1001500093E0E7D381E145D289818F5F89838981EB
:100160008C30A8F38FE03DD2198206C088EE93E070
:10017000D8D389818F5F898389818E31B8F383E1F8
:1001800030D288EE93E0CDD38FE02BD285E290E0A1
:1001900025E230E0F90120812860FC01208301C0C4
:1001A000000081E090E0BDD3809101018823C1F37C
:1001B00085E290E025E230E0F90120812061FC0138
:1001C00020838A85882F90E08F709927823091054F
:1001D00009F043C08A8582958F708A838A818F70E7
:1001E0008A838A8180628A838A818C8382E090E01C
:1001F00098D38B85882F90E08430910581F08A30E8
:100200009105B9F082309105F1F483E08D8388E0A7
:100210008E831F82CE01039661E061D01EC01D82D5
:100220001E821F82CE01039661E059D08C8575D263
:1002300014C01D821E821F82CE01039661E04FD042
:100240008C859BD20AC081E08D831E828B858F8333
:10025000CE01039661E043D00000CE010996BCD0E8
:1002600085E290E025E230E0F90120812F7EFC015B
:10027000208396CFCF93DF931F92CDB7DEB78983CC
:1002800085E290E025E230E0F90120812B7FFC013E
:100290002083109201011092030110920401109228
:1002A00000011092060110920501898180930201DC
:1002B00085EC90E0FC01108284EC90E02FE1FC01E1
:1002C000208381EC90E028E5FC01208382EC90E023
:1002D00026E0FC0120830F90DF91CF910895CF930A
:1002E000DF9300D000D01F92CDB7DEB79C838B8305
:1002F0006D830000809103018823E1F78091000164
:100300008823C1F78B819C8121E0FC0120838B81B4
:100310009C8101962B813C812F5F3F4FF901208109
:10032000422F4F7020910201222F30E0229532950A
:10033000307F3227207F3227242BFC01208381E06D
:100340008A8381E089830FC08981882F90E02B8187
:100350003C81820F931FFC0180819A81890F8A83DF
:1003600089818F5F89838981853070F38B819C813E
:1003700005962A81FC01208385E290E025E230E0A9
:10038000F90120812460FC01208381E090E0C9D242
:1003900081E0809303018B819C819093080180937D
:1003A00007011092040181EC90E021EC30E0F901AA
:1003B00020812062FC0120838D81882329F00000A8
:1003C000809103018823E1F70F900F900F900F9019
:1003D0000F90DF91CF910895CF93DF9300D0CDB7E9
:1003E000DEB79A8389831092000189819A81909364
:1003F0000601809305011092010181EC90E021EC4F
:1004000030E0F90120812068FC0120830F900F90DB
:10041000DF91CF9108951F920F9200905F000F928D
:1004200011242F933F938F939F93EF93FF93CF9339
:10043000DF9300D01F92CDB7DEB786EC90E0FC01D1
:1004400080818B838091050190910601009709F4CA
:1004500056C080910001863008F051C09091010192
:1004600081E08927882309F44AC082E090E09093D4
:1004700012018093110120910501309106018091B4
:100480000001882F90E0820F931F2B81FC012083B5
:1004900080910001882319F48B81813081F580914E
:1004A0000001853038F1109212011092110181E0A3
:1004B000898381E08A8311C0209105013091060172
:1004C0008A81882F90E0820F931FFC01808199819F
:1004D000890F89838A818F5F8A838A81853060F35F
:1004E00099818B81981719F481E080930101109212
:1004F000000105C0809100018F5F809300010F9083
:100500000F900F90DF91CF91FF91EF919F918F917D
:100510003F912F910F9000925F000F901F901895C0
:100520001F920F9200905F000F9211242F933F9320
:100530004F935F938F939F93EF93FF93CF93DF93AB
:10054000CDB7DEB7809104018630B0F486EC90E040
:10055000409107015091080120910401222F30E0C1
:10056000240F351FF9012081FC01208380910401B3
:100570008F5F8093040109C081EC90E021EC30E0B2
:10058000F90120812F7DFC012083DF91CF91FF9124
:10059000EF919F918F915F914F913F912F910F908C
:1005A00000925F000F901F9018951F920F9200907D
:1005B0005F000F9211248F939F93CF93DF93CDB75A
:1005C000DEB781E090E09093100180930F01DF91FE
:1005D000CF919F918F910F9000925F000F901F908D
:1005E0001895CF93DF9300D0CDB7DEB78A8381E42F
:1005F0009EEBA0E0B0E080930B0190930C01A093E0
:100600000D01B0930E018A81882F90E0A0E0B0E048
:10061000AC013327222780910B0190910C01A0910E
:100620000D01B0910E01822B932BA42BB52B80933F
:100630000B0190930C01A0930D01B0930E018A81E0
:10064000809589838981882F90E0A0E0B0E0582FC1
:1006500044273327222780910B0190910C01A09110
:100660000D01B0910E01822B932BA42BB52B8093FF
:100670000B0190930C01A0930D01B0930E01109209
:10068000090181E080930A0188E890E028E830E0E1
:10069000F901208131812C51384AFC0131832083BA
:1006A0008BE290E02BE230E0F90120812860FC0130
:1006B0002083000080910A018823E1F78AE290E01C
:1006C00030D10F900F90DF91CF910895CF93DF93AA
:1006D000CDB7DEB786E080930A0188E890E028E88D
:1006E00030E0F901208131812C51384AFC013183FD
:1006F00020838BE290E02BE230E0F901208128603A
:10070000FC012083000080910A018823E1F782E642
:1007100090E007D1DF91CF910895CF93DF931F929F
:10072000CDB7DEB789838981882319F08EE559DF3B
:1007300002C08EE056DF0F90DF91CF9108951F9396
:10074000CF93DF9300D000D0CDB7DEB78C838C8100
:10075000882F90E08C5B9F4F9A83898389819A814F
:10076000FC0114911B838B813CDF0F900F900F9045
:100770000F90DF91CF911F910895CF93DF931F9238
:10078000CDB7DEB7898399818DEC989F812D112497
:10079000869586958695D3DF99818DEC989F812DDE
:1007A0001124869586958695880F282F220F220F73
:1007B000820F292F281B822FC2DF0F90DF91CF914C
:1007C0000895CF93DF93CDB7DEB784E490E022E0C5
:1007D000FC01208385E490E022E0FC01208387E493
:1007E00090E025E4FC01208388E490E025E4FC010E
:1007F00020838EE690E022E0FC01208380E890E0F8
:10080000FC01108281E890E022E0FC0120838FE669
:1008100090E026E0FC01208386E390E026E2FC01E4
:1008200020838AE890E02AE830E0F90120813181D4
:100830002C53364FFC0131832083DF91CF910895F3
:100840001F920F9200905F000F9211242F933F93FD
:100850008F939F93EF93FF93CF93DF93CDB7DEB743
:100860008AE890E02AE830E0F901208131812C53B8
:10087000364FFC0131832083809115019091160140
:10088000009749F08091150190911601019790937E
:100890001601809315018091130190911401019626
:1008A000909314018093130180910F019091100196
:1008B0000097B1F080910F019091100101979093F2
:1008C000100180930F01009759F485E290E025E232
:1008D00030E0F90120812B7FFC012083109203017D
:1008E0008091110190911201009769F0809111019E
:1008F000909112010197909312018093110100973A
:1009000011F410920001DF91CF91FF91EF919F912F
:100910008F913F912F910F9000925F000F901F9049
:100920001895CF93DF9300D0CDB7DEB79A83898334
:1009300089819A819093160180931501000080911E
:100940001501909116010097D1F70F900F90DF914C
:10095000CF910895CF93DF93CDB7DEB710921401F6
:1009600010921301DF91CF910895CF93DF93CDB70C
:10097000DEB78091130190911401DF91CF9108951A
:100980001F920F9200905F000F921124CF93DF937C
:10099000CDB7DEB7DF91CF910F9000925F000F903F
:1009A0001F9018951F920F9200905F000F921124D4
:1009B0002F933F934F935F938F939F93AF93BF93E7
:1009C000EF93FF93CF93DF93CDB7DEB780910A010A
:1009D000882F90E0AA2797FDA095BA2F40E050E01D
:1009E00027E030E0841B950B2817390708F4F9C07D
:1009F000865E9F4F8F939F93089588E890E028E844
:100A000030E0F9012081318128583A4FFC013183CF
:100A100020838BE290E02BE230E0F9012081277FF8
:100A2000FC012083DEC082E080930A0188E890E028
:100A300028E830E0F901208131812E50344DFC014D
:100A4000318320838BE290E02BE230E0F9012081BA
:100A5000277FFC012083C5C083E080930A0188E8DA
:100A600090E028E830E0F9012081318128583A4FA0
:100A7000FC01318320838BE290E02BE230E0F9012E
:100A800020812860FC012083ACC084E080930A01AF
:100A900080910B0190910C01A0910D01B0910E017C
:100AA00081709927AA27BB270097A105B10569F096
:100AB00088E890E028E830E0F90120813181285968
:100AC0003F4EFC01318320830CC088E890E028E889
:100AD00030E0F9012081318128583A4FFC013183FF
:100AE000208380910B0190910C01A0910D01B09198
:100AF0000E01B695A7959795879580930B019093D6
:100B00000C01A0930D01B0930E018BE290E02BE25B
:100B100030E0F9012081277FFC01208362C08091B1
:100B200009018F5F80930901803220F085E0809376
:100B30000A0103C083E080930A0188E890E028E876
:100B400030E0F9012081318128583A4FFC0131838E
:100B500020838BE290E02BE230E0F90120812860D5
:100B6000FC0120833EC010920A018BE290E02BE250
:100B700030E0F9012081277FFC01208332C087E02B
:100B800080930A0188E890E028E830E0F9012081AC
:100B9000318127503A4EFC01318320838BE290E073
:100BA0002BE230E0F9012081277FFC01208319C06E
:100BB00085E080930A0188E890E028E830E0F901B8
:100BC0002081318128583A4FFC01318320838BE208
:100BD00090E02BE230E0F90120812860FC012083C5
:100BE0000000DF91CF91FF91EF91BF91AF919F9165
:100BF0008F915F914F913F912F910F9000925F00E5
:0A0C00000F901F901895F894FFCF95
:00000001FF
