:100000000C94494C0C94664C0C94664C0C94664CC5
:100010000C94664C0C94664C0C94664C0C94664C98
:100020000C94664C0C94664C0C94664C0C94664C88
:100030000C94664C0C94664C0C94664C0C94664C78
:100040000C94664C0C94664C0C94664C0C94664C68
:100050000C94664C0C94664C0C94664C0C94664C58
:100060000C94664C0C94664C0C94664C0C94664C48
:100070000C94664C0C94664C0C94664C0C94D828EA
:100080000C94F5280C94F5280C94F5280C94F5287C
:100090000C94F5280C94F5280C94F5280C94F5286C
:1000A0000C94F5280C94F5280C94F5280C94F5285C
:1000B0000C94D03B0C946F3B0C94F5280C94C63BED
:1000C0000C94F5280C94F5280C94F5280C94043C19
:1000D0000C94DA3B0C94F5280C94F5280C94F52834
:1000E0000C94F5280C94F5280C94F5280C943531D3
:1000F0000C949B310C94C331584E594C1F0005028F
:10010000CA000B00000000005350647D0050667D63
:1001100000505C7D0050647F0050647F0050647F1D
:100120000050647F0050647F0050647F0000000036
:100130000303090909C201FFFFFFFFFF00000000E0
:10014000080008015161FFFFFFFFFFFF00000000F2
:1001500000007D7D7D7D7D01010303020402040614
:1001600007008380B00214DF0FC1FF07005792120F
:10017000B2003C003D244030009702003F240000C4
:100180000001040A00551006001700103F01340A50
:10019000009527003F01340100974800F4C0550046
:1001A00000170800F4C05790C02400060097020012
:1001B0003F2400000000000700D781103F240010FA
:1001C0003F24000600D701003F240000000D190F56
:1001D000004FF900000ECA0F2800E10600162000AB
:1001E0000080000500924F09300028092940F813CB
:1001F00036240006009701060015A180B0240000F7
:100200003F00340700578A00372400804024000054
:100210000040000028D5CB0600D7A20930003C06DC
:100220000057A10930001C0600D70100000D190A73
:10023000008F700000CED40B29801A003F4C18307C
:100240000017008040011C000000020028D5C702F2
:10025000B12400000008CA0028D5C70000CED01184
:10026000000F2100000D190F2800CB1336240006C3
:100270000015A10600D701F03701140061011C121E
:100280004024000000008010602400F334000400CB
:100290002898D300002400000001801060013C0079
:1002A000000D001128598200002400112A0021307D
:1002B0000057020037240080402400000024000082
:1002C00028D5D606009701060015A1003F00348608
:1002D0004D240000000D19002815DB1400011B201F
:1002E000000F480000CED92029C04100000D190A96
:1002F000008F700000CED40A28C0CA00000D193942
:10030000004F3201004E182028184A82B8240020DD
:100310002AC0483F0000FD00B724003F0001F9104B
:100320006024001400011B0A2805C500000D1915E2
:1003300000C059C26F240019000193002895E518E8
:1003400000C0500C294048133624000C2940488630
:10035000404C180000C218346224000000021D0046
:100360002815E13462240030001703002800E7005C
:100370003F24000000821D0028D5E33462240012CF
:1003800029000D84404C1800F2240000622400066D
:1003900000170080B0403C002800E7003F24000028
:1003A000000202002815E724A0240020C024003009
:1003B00000D702002800E7003F2400C26F2400009D
:1003C000002400002815E7000024000028C09F0A30
:1003D00000C8CA0A008F8C00004EE80C0081090A90
:1003E00028C0712C00409D0A008F700000CED40AF6
:1003F00028D5C012008251D66F24003F0081FD0A2B
:1004000028458E10B7240010B724003F0001FC12CD
:1004100060240000000101002815EFD2FF2400B283
:100420004824009041240000000D19002815EF0019
:10043000002400133624000A000FA40A294060019A
:10044000000E0E00000D190A008F700A28C0C000AF
:1004500000CED4202900010000010400008001200A
:1004600029000213362400202980021336240000BC
:100470000001042029800284404C981900019D123B
:100480006224001E00015C002895F3126024000025
:10049000002400002885F5000024001B00C15B1229
:1004A0006224001B0081DD002855F9126024000041
:1004B000002400002855F90000240000004D000A27
:1004C000004FBF0A2880B800008EF620004FFB00C6
:1004D000000D1900004EFE202980040930C12B1A9E
:1004E00029408AE336240000000D190A008F700AA3
:1004F00028C0CA0000CED4300017000037244000C6
:1005000000000202B1240000002400002845FD0084
:100510000024000000C0000500924F0930002809A7
:100520002940F81336240006009701060015A18023
:10053000B02400003F003400000D190A008F700A3B
:1005400028C0C00000CED400004D0020000FFE20C7
:100550002840FB00004EFF0128550100002400093F
:1005600030C01312602400000024000128050D0093
:1005700000240013342400B0342400804024000000
:100580000000020128550482B824005334240009D5
:1005900030C01380402400000000020128050D0037
:1005A00000240082B80C1300004D0021008F0521AB
:1005B00028400301004E050128D5071260240000E1
:1005C0000024000128D50700002400C3344C180083
:1005D000F400452629808E103E0C11F3362400C30A
:1005E000344C1810342480303424C0864D2400004C
:1005F000000002222985180100880B00000002106B
:100600003E2480212980CA003E24C01A29408A0045
:1006100000240022298018F336240000004D002118
:1006200000CF0E2128C00B01008E0C002840FE30A8
:100630003C244000000D1900000E332128800F27B4
:10064000000F9E0129800F013E24C001000E0E0AFA
:10065000000FA40A28C0A400000D1920004FCD20CF
:100660002880C701004E1070B0240000000E332710
:10067000000F9E202880CD00000D19133624001095
:100680003E03B8143E1138113E0538003E013807CC
:100690000090C3060011A0103044045030054458A7
:1006A00064020394FF81400300C5FFB64824008222
:1006B000FF2400B242420058B40300D64C019848CF
:1006C000F2C01B8AB52400E66D0418060010001065
:1006D00038C59B003824C0F4361118F03603983E14
:1006E00028802DFF0FC3FF0128402A00002400139B
:1006F0003424000128051A00F410450128801E94B6
:1007000068CC1300304C189060CC93B03812380489
:1007100030244000001009833124000031244016A9
:100720006024000C0012800128111D84B84C109424
:1007300068023000008D023A000F5E01004E32392F
:1007400029C0B0103ECC938440D29B82422400004A
:1007500000410001288520126224000000400001B1
:100760002885250C009083012A0029C334240044E5
:1007700034240073302400533024000030240092CD
:10078000608C090000410201280529A032240012D2
:100790006024000000240001281529000024001313
:1007A0003624000130443820298005093052389021
:1007B000C0D29B012800290038C41B0C00134180C3
:1007C000B88023043324400038CC0592CCCC0510EB
:1007D000392400103924400C00108110392400F015
:1007E00039244010382400D038244010382400F038
:1007F000382440C33424004434240073302400637C
:1008000030240000302400804024000000240039FF
:1008100028D55384422400133624000128452C98FF
:100820006804B8000084003B29C01C133624000C67
:1008300000178111372400D13724408A4E2400004C
:100840000015000128052F9ACE2400113F24000135
:100850003F24400C0097818A40C49B153F244001EF
:100860002845318442153C9065240000002400395D
:1008700028D55384422400000024000128D8188A77
:10088000452400392AC0533E004F2D3A28D55E0139
:10089000008E110C00534600004602ACFF010CBE56
:1008A0004824006241464542665540013524800097
:1008B0000087007C6657400C00D5413A28D562017C
:1008C0003524807C66471C013724803A28D5627C19
:1008D000C62400000024003A28C562000024003A23
:1008E0002AC05E09305138143E12F8123E17B81172
:1008F0003E248006009302013324808C460438068F
:100900000057A00128443E060011009C462400E147
:100910003B24800128553E060092C311332400F188
:100920003344280930C42B3000D204113324001181
:100930003A2400013224803F0004FC4CB6C40F4826
:10094000C62400013A24001131D31F9864C6078CD5
:100950008644242300D2FF0139068E300051051150
:1009600039068E6139449C00F4C6446CD4C41BF132
:100970003613BC0128D547F23617982B00D2FF83D7
:10098000338C18013E068C060097A00930121C1308
:100990003224008C4612BC2B00D2FF00F497410198
:1009A00028C4441337240001280545E337240009EF
:1009B00030172C833324000930060C8C46974106EF
:1009C0000052A0012804471337132801284547E3A4
:1009D0003724000930172CF1362480F2361798F4AA
:1009E0003612D8002100000439D15B012A0E3811DB
:1009F0003E047830005702013724001300054D5B98
:100A0000D4E1E0070095C70128554FFF0F45FF11BE
:100A1000354C18884408B80600978A0128054F0904
:100A200030401C1135C11F0000200052AC0514E2FB
:100A30006C2400000024000128014FC26824001A21
:100A400029408A103E2400212980CA003E2440F318
:100A50003624000930C81BF036011801360458133B
:100A60003E0F78133E08B808000F9B01000E520895
:100A700029009300004D00F336089800200000F391
:100A8000360F58060010C60700D781103724000023
:100A9000372440340002000000C301C66D018032DB
:100AA000FF4340B2482400A6FF2400B24024008641
:100AB000B3424100000601142980AA66AD240096C5
:100AC0006C240000000102D6F12400DE612400063F
:100AD0000012C60128C157060013C7864C24001215
:100AE000298011060051C3060010021229000D10C2
:100AF000384C9800F24320082800A0003824002E2B
:100B0000800128C0485080123E0038003E04B830B2
:100B10000015000800020011354C1828B40214001A
:100B2000000480102995010000881428B4240006D0
:100B30000095000028451F133E0E78113E037813E0
:100B40003E06F8013E01F810352480103524C0001F
:100B5000002100D6F244149040451700002200EA1C
:100B6000F297440024001B9060461C6CFE2400B6E3
:100B7000CD461C6CFE2400BACE461C864D42340085
:100B800000C7090028851CD4F54334246724008A53
:100B90004E4434000006020028C51DE8F50537481C
:100BA00067240064A2019848C2C71B3000D5030126
:100BB0003D2400F33606D801360358F3362400F3FB
:100BC000360E58070057820037248024F224000094
:100BD0000024000028D121003644980029802700F5
:100BE000004822112940F100002400300057000085
:100BF00037240000F29545FF0F02FE24A04C16009A
:100C000080CC17003F2400003524002100826D2491
:100C1000D0C044060002A40028952624D024000059
:100C2000000000002895260B00576D0930003CF0AD
:100C3000362480F236001800200000000024003026
:100C400080002800149E80143E1078133E0DB813C7
:100C50003E0AF8103E03B8113E0538113E07B8149D
:100C60003E01F801000A000600D5C48EBF4294017F
:100C70003E0394060017A02300D1FF00005300811B
:100C80003206F89140642D0024002DFA4E109CEBA2
:100C9000F1616055FE662F5356642DB24801A2FAE9
:100CA0004E01A2F336103CF43601D8F1360798F124
:100CB000360518F0360398F3360AD8F3360D980047
:100CC000200000F4361058BE80123E17B8143E12B1
:100CD000F8013E11B8070017972000D2FF3000D16D
:100CE0001111312480043724C0813B248001312438
:100CF00080813B2480043F24C008280048F136113D
:100D0000982880002A8E2F32800028C038CC80F3AB
:100D100036240009304838143E1138003E240000C3
:100D2000000040010010001529C094010011CCF012
:100D30003624002729409E04361118133624001447
:100D40003E1138003E240000000040010010001554
:100D500029C094010011CCF0362400F43611180992
:100D60003008180020000000000D19E380123E1723
:100D7000B8123E1538053E14B82536240000000A86
:100D800080103E0138103E03B8113E0538113E0771
:100D9000B8143E1138060090A01229000D143E240C
:100DA000C088400080804024000700D19000288542
:100DB0003E000024000700519000312440004124EF
:100DC00000003924000700D19004000000F0312415
:100DD0004014600004070051900028914280402494
:100DE00000000000000028454200002400070053D6
:100DF0009000332400804024000000000000289868
:100E000042000024000039240000324C50106424B9
:100E100000F03C000080402400060091C600280538
:100E20005B00000110070051900031240012602483
:100E3000000600D0C60028C94F3F0000E00600931E
:100E4000C60039000C09300100146024000700D0EE
:100E50001A0028D54F09300000804024000000010E
:100E60000300284549904024000000240000285534
:100E70004A000024000930000012C024000028C0ED
:100E80004F093001200930000012602400000024C6
:100E9000000028554C00002400000080030028C0FA
:100EA0004F0930002000004103126024000000249C
:100EB000000028554E000024000000C0030028C098
:100EC0004F0930002000008103126024000000C0A0
:100ED000000028D54F0000240009300020060090B3
:100EE000A009300000804024000000810000285547
:100EF000540700138C00334C1010B0240002000182
:100F00008000280557F034240000284054000024B5
:100F10000009300000906024000930002000298082
:100F20000B093005040600D1C6060090C609300042
:100F3000000930010414602400060051C300281188
:100F400053060093A080B824000028806309300075
:100F50002C40402400126024000600D0C6002898CF
:100F600063060093C60930000C09300100146024A8
:100F700000060050C3002881630000240090602414
:100F8000000930002C093005000029800B00008882
:100F9000630930000480402400030000800028859D
:100FA0006300002400006424000000810000288900
:100FB000630700138C0033240010B0240006005097
:100FC000C6002895630100020013340000093001B7
:100FD00004104006840000810210A0C113224124A5
:100FE000000000C203226102802C4624009C46249B
:100FF00000E2FE2400BE4824006660008406005023
:10100000C3002881630000240090402400093000C0
:10101000240029800B093005001229000D13362405
:1010200000003A2400F43624C0F4361118F13607D3
:1010300098F1360518F0360398F036011805341487
:1010400090F3362400F236151800200000F236170F
:10105000989C8113362400123E17B8123E153805AD
:101060003E14B83536240000000A80103E02781481
:101070003E2400022980F200000102000001061354
:10108000344C180229C0F9F03C240013344C1800E9
:101090003440300930C1330000C11F10B0240014A7
:1010A000604090060010800028D56D00002400E309
:1010B00034CC1B906824000028806F80B80020107A
:1010C0003E81130329C039003E24403F0041FEE326
:1010D000364C10F034240010A02400F4362400F024
:1010E00036025805341490F3362400F236151800F1
:1010F000200000F2361798C58113362400123E17DF
:10110000B8123E1538053E14B81536240000000A02
:1011100080103E04B8013E4C538ABEC0108040246B
:1011200000000024000028C578000024000229C027
:10113000F982404C188A4C4C13000001009068C2A0
:10114000109442240022AC2400C2BE2400000024DB
:10115000000028C5780000240090684C1382B8C2B3
:101160001022AC2400924C240092DC2400CACE242D
:1011700000824EC51BF036049805341490F33624D3
:1011800000F236151800200000F2361798EA811395
:10119000362400123E17B8123E1538053E14B845E5
:1011A00036240000000A80103E0138103E03B811BA
:1011B0003E0538113E07B8143E4C10022980F2005B
:1011C00000810080404030000001010028C57F0000
:1011D00000240090402400060050800028D5930091
:1011E000002400022980F21336240080B800300069
:1011F00028809109308033022980F22241CC10F0FE
:101200003C2400013024000034240000682400083D
:10121000A44090804024000000C107002855859418
:1012200068801394680C13603424000864814402BD
:1012300041801300F452400000C107F03424C03450
:101240006224002468240022A124001460240000E9
:101250000041010028558C00002400022980F2136F
:101260003624000028C08A8AB80240002940710054
:101270003E24808E4C01A800000102103ACC1B00D5
:1012800030240010B0240000002400002855909A5B
:1012900065240040654C1830001000002848880084
:1012A00000240000284090F33624000028008F8A94
:1012B000B824000229C0BAD03424408F4CA1A00029
:1012C00000010200304C0810B0240000002400008F
:1012D0002855909A6524004065CC1030001000001D
:1012E00028C88C00002400D33424002334240000B8
:1012F000F4104509308013906024000930002092DA
:10130000688C10F034009022A14C981660C1130034
:10131000000201002808810600508100284094093D
:1013200030CC1B90688C9300382400F4362400F1F4
:10133000360798F1360518F0360398F0360118058F
:10134000341490F3362400F236151800200000F211
:101350003617985B8213362400123E17B8123E15DA
:1013600038053E14B81536240000000A80103E01EE
:1013700038103E04B8113E07B8143E1138043E4CF4
:1013800093303424008040240000000602002845E9
:101390009D0600518101310C130CFF0211086424D9
:1013A000000442240082B89240051002FEBE482488
:1013B00000644224000329404600F49040F436249F
:1013C00080F4361118F1360798F0360498F036019B
:1013D0001805341490F3362400F236151800200056
:1013E00000F23617980B18A405BF05060606060678
:1013F00006060606060606DB05DB05DB05DB05DB68
:1014000005F407D807DC07E007E407E807EC07F076
:1014100007230827082A082A082A082A0832084524
:101420000810097C08810887088D08920897089C95
:1014300008A108A608AB08B008B508CE08ED080C4E
:1014400009825A825A0000000000000000000000DB
:1014500000B86F80C180C1B86F00000000000000BC
:1014600000825A825AB86F80C180C1B86F000000F4
:1014700000825A825A825A825AB86F80C180C1B89B
:101480006F678513362400123E17B8123E153805D3
:101490003E14B8753624003336240000000A80104C
:1014A0003E013800008101103E03B8113E0638119C
:1014B0003E10F8143E1278133E0EF80229C0C30302
:1014C0003E2440022980F288404C1813344C180204
:1014D0002980F292684030804040300000000001D6
:1014E00028C56400002400906824000229C0C3D0ED
:1014F0003C240080402400000024000128156500E1
:101500000024003334240000F41045D0342400902B
:101510006024000229C0C3003824008040CC1000A1
:10152000F4104501288562D03424000128006500AC
:10153000002400D03C240033342400A034240000D4
:10154000F410453034244000612400000041034081
:1015500038240000302400126024000600C102017B
:101560002881811240240000F457400237240000F3
:1015700020000000002400D3344C183034248000B4
:10158000294071003E2480F336CC1188B84C1010ED
:101590003C2400903C24400128C06DE334240082A8
:1015A0004F8C12003424404241240000F45040008B
:1015B00038240040342440424124009864504009BB
:1015C000300720060050810030CC1102644C10110D
:1015D0003424800128886B913424C00128409DE385
:1015E0003424000128C07488B82400002940710008
:1015F0003ECC908E4C0C130034CC5B424124000056
:10160000F45040003824004034244042412400007B
:10161000F4504000000102093007203000100000A3
:1016200030240010B02400000024000128559D98AB
:101630006424000600508100304C13026402100044
:101640000024000128487009304C180128409D33BF
:1016500034CC1B0000010288B84C1030344C1810F8
:1016600060240002640030000001020128587D302F
:1016700000100090404C120124407C0000240030F7
:1016800034248000294071003E24808E4C0C1300CD
:101690003424404241240000F4504000382400101B
:1016A00034244042412400986450400930072030DF
:1016B0000010000000010273342400903424000064
:1016C0003ECC130029807A443424800030CC1B1097
:1016D000B02400000024000128559D00002400C310
:1016E000344C1870342400103E4C10C03424400098
:1016F00029C096003E24400128409DE33624000086
:1017000000010813342400F0342400126024000087
:1017100000C1070128889C0000240010604C11883B
:10172000B8C03202642400000001010128188900B9
:1017300000240090404C130124408809304C18309C
:1017400034248000294071003E24808E4C0C13000C
:101750003424404241240000F4504000382400105A
:10176000342440424124009864504009300720004E
:101770000001013334CC1B022980F213362400000F
:1017800000410190608C11022980F2A03C4C18733A
:10179000344C1888B88033003424000264240000DC
:1017A0000001020128D88F0000240090404C100155
:1017B00024008F00002400A0342480002940710000
:1017C0003E24800600020844428C114442240098C2
:1017D000649540093040340930C13700000102F3FC
:1017E0003424003000100090342400003E8C13009C
:1017F00029807A443424800030CC1B10B0240000AF
:101800000024000128559D1241240063342400A0C7
:101810003424001260240006001181012819990067
:101820000024000031CC11903424401040240000EA
:1018300000010A1260240006005181012818990055
:1018400000240013364C11013104389034248028D0
:10185000648C137034248023342400203424C03456
:10186000424112804392400329404606001008017D
:1018700028409D0930CC1B0600518113364C1101C4
:101880003104389034248028648C137034248023ED
:10189000342400203424C034424112804392400357
:1018A000290050060010080128409D0930CC1B0675
:1018B0000050809068240000382400F3362440F360
:1018C000360ED8F4361258F13610D8F1360618F024
:1018D000360398F036011805341490F3362400F2DC
:1018E00036151800200000F236179881861336242A
:1018F00000123E17B8123E1538053E14B8153624AE
:101900000000000A80103E0278103E04F80000C378
:101910003F113E0678113E10F882BCCC12043424EC
:10192000002330240010382400F03824405434249C
:101930000010382400F0382440022980F200000111
:10194000020600019388404C130034248004D22402
:101950000034B224002241240000F4554000352414
:1019600000303C24000000002000B42400000001EE
:10197000300128D5AA000000380000410042FECC0A
:1019800012B248901010382400F03824400128C0CA
:10199000CB3034240000B424001260240000000185
:1019A00038012815AE0000003C0000C007000041CF
:1019B0000000B4CC1202FE5011B24824009A6840D4
:1019C00020012880CAF038244000B424001260248A
:1019D000000000013C012895B10000003E0000C05D
:1019E00003000085009245CC1200B4501102FE2481
:1019F00000B248240010382400012880CAF038249E
:101A00004000B42400126024000000013E012815AB
:101A1000B50000003F0000C0010AF2CC1200B45033
:101A20001152F2240002FE2400B24824001038248F
:101A300000012880CAF038244000B40C131260243E
:101A4000000000013F012895B890432400000041A8
:101A500000000005019045CC1300B4501102FE2493
:101A600000B248240010382400012880CAF038242D
:101A70004000B42400126000110000C101012815CB
:101A8000BC0000240000004100000045019068CC2B
:101A90001200B4501102FE2400B248240010382471
:101AA00000012880CAF03824401260240000008120
:101AB0003F012895BE30B4240012602400000024A9
:101AC00000012895BE00002400012880CA0000857E
:101AD000010128C0CB90C824000000C33F000001D2
:101AE00002D3342400022980F233344C180600015A
:101AF0009388404C130034248004D2240034B22450
:101B0000002241240000F45540000001200035244B
:101B100000303C24000000003000B4240012602497
:101B200000000082010128C5C4000024000128C073
:101B3000CB90C824009A45CC1204342400233024CE
:101B40000010302400D030244022AC46003F0082F8
:101B5000F9113024C0000023002EAF2400000082C1
:101B600001F2CC24000000C60F000047006CB44016
:101B7000206EFEC1235434240010302400F03024A1
:101B80004022AC2400B2CC240010382400F03824C9
:101B9000408A454C13000001020128D5BF0000C354
:101BA0003F30342400F13610D8F1360658F03604B0
:101BB000D8F036025805341490F3362400F2361566
:101BC0001800200000F236179838871336240012C8
:101BD0003E17B8123E1538053E14B875362400334A
:101BE00036240000000A80103E0138103E03B81170
:101BF0003E0538113E07B8143E1138143E13B81391
:101C00003E0EF8033E24400329402D000081030FBF
:101C10000081FF12604C1800000102012845D40029
:101C2000002400022980F2020088B7133624000045
:101C30000001040600108A002940BF80B8CC1B8038
:101C4000B8CC1113344C18903C2400022980F2F3D4
:101C500034240073344C18003C00008040240006FB
:101C60000001930128C5D93F0004FE90342480442C
:101C7000A224000329401080B82400002940BF3F5F
:101C80000004FE73344C180600918013342400F0D5
:101C9000342480003424C046A3240034D22400001D
:101CA00000C33F34B224002241421000F4554006E4
:101CB0000001930035240024D0003034B2240022E7
:101CC0004124009268554000352400F03C2400A0D7
:101CD00034240000F1240010B02400603C2400B043
:101CE00034240010B0240000000102022980F2E038
:101CF0003C24000600019373344C18103C2400F07F
:101D0000342480103424C034D224000000C33F3473
:101D1000B224002241240000F455403F0001FF009E
:101D2000352400F03C2400C034240010A02400001E
:101D300000C103403C2400D034240010B024000033
:101D4000000102022980F2C03C24000600019373C6
:101D5000342400103C2400F0342480103424C03497
:101D6000D224000000C33F34B224002241240000EA
:101D7000F455403F0001FF00352400F03C240000F2
:101D800034240010A024000000C10100392400E028
:101D900034240000F1240010B0240092688030F058
:101DA00034240010B02400B03C240050342400A09F
:101DB00034244010C0240000008101012845EE00B9
:101DC0003124009068CC07022880B7003924001223
:101DD000602400000001020128D8EF000024000167
:101DE00028C0F290604C04126024000000810201BF
:101DF0002808F21260240000008000012819F20077
:101E00000024000128C0F2133124009068CC07029E
:101E10002880B7003924000000010200394C11B0BD
:101E20003424001260240006000106012801FD127E
:101E300040240000F4574002372400002000000036
:101E4000002400012800FD0000240000000002061C
:101E5000001081012800FD00382400000000030666
:101E6000001081012800FD003824000600508090F9
:101E7000682400022880B70038240000000004060F
:101E8000001081012800FD00382400000000050634
:101E9000001081012800FD00382400000000060623
:101EA000001081012800FD003824000600508090B9
:101EB000682400022880B70038240023344C1860BE
:101EC00034240080402400060000820228450210CD
:101ED0003E24000000C001103E2400903424000184
:101EE0002940A0003ECC13D336CC111334240080FB
:101EF000404032F334240002281806000024000673
:101F000000108090682400022880B7003824000068
:101F1000008001103E240090342400012940A000DC
:101F20003ECC13D336CC111334240080404032F31E
:101F300034240002281806000024000600108090B7
:101F4000682400022880B700382400000001023312
:101F5000342400D03424001260240006000108025A
:101F60002801181240240000F457400237240000D2
:101F70002000000000240006005080906824000229
:101F80002880B700382400000000300228C019065D
:101F9000005081000000900600508133342400D0AE
:101FA00034244092412400924124000228C0191098
:101FB000A024000000010206005081022980F213D3
:101FC0003624000600019373342400103C2400F0F2
:101FD000342480103424C034D224000000C33F34A1
:101FE000B224002241240000F4554000352400F0C2
:101FF0003C2400903424000228C019906024003F43
:102000000004FE0000010406005081022980F21342
:102010003624000600019373342400103C2400F0A1
:10202000342480003424C046A3240034D224000089
:1020300000C33F34B224002241421000F455400650
:102040000001930035240024D0003034B224002253
:1020500041240000F4554000352400F03C24009059
:102060003424000228C019906024000000004000C1
:102070000002020600508133342400D03424402270
:1020800061240010A024000400018000380C110617
:10209000005081003024001260001300000104028F
:1020A00028891C000024009068CC82022880B70098
:1020B000382400126024000600010A02280144129C
:1020C00040240000F45740023724000020000000A4
:1020D000002400022800440000240016000022060C
:1020E0000090819268402002280044F03824402C5F
:1020F0000000440000810006009081103824000296
:10210000280044F03824403B000080000081000695
:102110000090811038240002280044F03824400741
:102120000000D00600908182B8402002280044F0D0
:102130003824400F0000A00600908182B8402002A1
:10214000280044F0382440150080880600908182E1
:10215000B8402002280044F03824401700007006E0
:1021600000908182B8402002280044F03824401FAB
:102170000000400600908182B8402002280044F010
:102180003824402B0000110600908182B8402002C4
:10219000280044F03824402E0000E00600908182A0
:1021A000B8402002280044F03824401D0000C0063A
:1021B0000090819268402002280044F038244006B4
:1021C00000908100000102000004FA022980F2134D
:1021D000362400060001938AB8CC11103C2400F08C
:1021E000342480103424C034D224000000C33F348F
:1021F000B224002241240000F4554000352400F0B0
:102200003C24009034240050FE0540B2482400CA0B
:10221000FE2400B24024001038240002280044F0BC
:102220003824403F0004FE000001040600908102B3
:102230002980F21336240006000193733424001021
:102240003C2400F0342480003424C046A32400340D
:10225000D224000000C33F34B224002241421000C7
:10226000F45540060001930035240024D00030349A
:10227000B224002241240000F45540000041000037
:10228000352400F03C24009034240002FE2400B2E7
:102290004824001038240002280044F03824403F2D
:1022A0000004FE0000010406009081022980F21360
:1022B0003624000600019373342400103C2400F0FF
:1022C000342480003424C046A3240034D2240000E7
:1022D00000C33F34B224002241421000F4554006AE
:1022E0000001930035240024D0003034B2240022B1
:1022F00041240000F4554000352400F03C24000047
:102300000080029034244002FE2400B248240010D1
:1023100038240002280044F0382440060010809041
:10232000682400022880B70038240000000102025F
:102330002980F21336CC11103C2400903424401430
:1023400060CC1300008100022845470600D08006BB
:1023500000108090682400022880B7003824001004
:1023600030240012602400000041020228C96606E1
:102370000012810800010009304C18103E24400072
:102380003024800129C059003E2480F3364C0000DF
:102390003044380800100084B840380000000400C1
:1023A0003E248001322400022980D2086491400139
:1023B0000000000B00118004001000E3362400151B
:1023C0002900830930C41B0B000080133624001041
:1023D0003E2400003224C00129C059003E24C0F32D
:1023E000364C08F03244F8103E24C0003E248001F0
:1023F0002B91000000000404F20408022980D20896
:102400006424000B0011800800100000008400D339
:102410003624001529008303000080050010000108
:10242000000000152900830F00110006100008F3BA
:1024300032CC1100328CD034FF2400B64824002066
:10244000402400903C240002280063E3342400066A
:1024500000128113362400103E2400003024400175
:1024600029C059003E2440F3364C000030447884A3
:10247000B84138012B910000000004003E24800187
:10248000322400022980D208642400030000800B5B
:1024900000118008001000E336CC1123342400948E
:1024A0003424C0022900FE01338C13010000000F08
:1024B0000011000400100003294003013324000030
:1024C000F410450B001180733024002330240000E9
:1024D00030240090602400003824000300008004B1
:1024E0003024C008001000032940030133240001F8
:1024F0000000000F00110005001000032940030137
:1025000033240000F410457330C41B98648C000021
:1025100030240090602400003824000600D08000A1
:102520003024000264240006001081022848560B63
:102530000000800B001080010000000329C05A0435
:10254000001100050011000B001080010000001FA9
:1025500029C0C602000878E1304C1800302400126F
:1025600060240008000100022895680000240098FB
:10257000642400103E2440000081000129C059015C
:102580003E2400E3364C0000302400126024000B8F
:102590000011800228D57406001281000001020497
:1025A00000100015290083010000000B00118005B8
:1025B0000010001F29C0C60100000006001081E1C4
:1025C0003024000030240012602400000081020248
:1025D00028C56F126024000B00018002285570137B
:1025E000362400F33624000B00018098644C180652
:1025F00000128103000080103E24400129C05901CF
:102600003E2400F336240009304438103E240000F4
:102610000000040030248008001000003E248001E7
:10262000322400022980D208645140E3362400029B
:102630002800780930C41B000000040000110013BA
:10264000368C00D0304478103E244000302480087E
:10265000001000003E248001322400022980D208AC
:10266000642400E33624000930C41B0600108A00ED
:1026700000C1010930000010B02400000024000255
:1026800028057C92612400022980F202614C18889E
:10269000402400000024000228057C0000240006DD
:1026A0000051809068240000392400093000008027
:1026B000402400000024000329850F0200C8800682
:1026C00000929F000003400930110800312480A6C9
:1026D000FF2400B64824000329800F84432400030C
:1026E00029401013362400002940BF0000240003B5
:1026F00029800F000024000000010473344C1802EC
:102700002980F2103C2400903C24000B290014F393
:102710003424008040240000002400022815B40066
:102720000024007334240010342400A03424401406
:10273000608013000024000228C588804024000621
:102740000011809068240082B800240400008014E6
:1027500029C0BE080010000000000443318C109016
:1027600068C027203924000400008000392400E0DC
:1027700034240080402400060050810228C58C00CB
:1027800000003200004201060010821336240000CF
:102790003E007811302480D13024C0F4FE8740B64A
:1027A000484000EEFEC103142980A5B64224000271
:1027B00028C0900700D08900004201133624000091
:1027C0003E00783130248010302400D03024409CEA
:1027D000FE8141BE48240082FE4000BE46C103F493
:1027E000FE8740B6482400EEFE2400142980A5B6DA
:1027F0004224000700D089060091818A4C0098D0BD
:10280000FE0540B2482400CAFE2400B24024001055
:10281000382400F0382440113124808A4607070804
:102820002980BE013124002331CC1100318C1009E4
:10283000300030040000800930411214608C130B0A
:102840000011800228019700002400733424002323
:1028500034240009304032E3342400022840B20816
:1028600000120000008100022889980600D0800034
:10287000F40440003024001260240000000500022F
:1028800028099E0000240040652400000024000266
:102890002858AE904424000224409D0000240006E5
:1028A00000018354450008224124009A65554006E2
:1028B000004183003D40082241240000F4554000BF
:1028C0003D2400022840AE00002400904024000077
:1028D000F48044022855A30B0001804065240000C9
:1028E000002400022858AE90442400022480A20054
:1028F0000024000600018354450008224124009A68
:10290000655540060041832241003400F4554010D3
:10291000322400003D2400022840AE0000240014B0
:1029200060240001000000022895AA03000180082D
:10293000001200080010000600538113362400091D
:102940003011380329C05A0400110008001000019A
:102950000000001F29C0C6050011000F001100086B
:10296000001000D0334C18106044B8103E24000012
:1029700000000420332440003E24400133240002A0
:102980002980D208642400E33624000930C41B09DE
:1029900030D11B4065240000002400022858AE906E
:1029A000442400022400AE000024000600018354E9
:1029B000454008224124009A655540060041832283
:1029C00041003400F4554010312400003D24000043
:1029D000F410453000130073304C18113E8C000980
:1029E000300100406124000000010209300020068F
:1029F0000000830C290073103E240000338C1B1050
:102A0000B0240000002400022815B4000024007344
:102A1000342400233424000930401280408C1300F9
:102A20000004080228959702642400060012D306C9
:102A30000010D30600918110304C98F03024C00073
:102A4000002100D6F2C6070A29C0F5824600049488
:102A500068400886B8C10BD6BC2400103A2480F028
:102A60003A24C0F3362440F3360ED8F4361398F4E3
:102A7000361118F1360798F1360518F0360398F03C
:102A800036011805341490F3362400F23615180078
:102A9000200000F23617987F8213362400123E176A
:102AA000B8123E1538053E14B81536240000000A49
:102AB00080103E013820000100143E1138300050D3
:102AC0000030005102043E13B80030240012C0242C
:102AD000001900009300382440002940BC0039242C
:102AE00000032940210000000382B824001429C0FB
:102AF000BE060010800000401507009081002900EC
:102B0000670038240080402400000024000028D5FD
:102B1000AC00002400060012800032240080402413
:102B200000300010000028D5AC0000010200302465
:102B30000010B02400000024000028D5AC000024C0
:102B400000002900670000240080402400060010D7
:102B5000800028D5AC003024008040240000000113
:102B600002002805A9300010003000500092F20049
:102B70000012B02400003824403000100000000192
:102B8000020030240010B02400000024000029D5E9
:102B9000BE000088B6060011800031240080402469
:102BA00000000024000028C5B400002400070052E3
:102BB0008A0032240080402400000024000028C93C
:102BC000B40000240092F20008126024000000000B
:102BD00000002885B4000024000032240090402426
:102BE0000080B800280039240000312400804024EF
:102BF0000000002400012905CE0000C8AD0029C056
:102C0000BE00002400000010000600519F06009244
:102C10009F3000930400000102906810A4003B1054
:102C2000280600108A09300000126024000600D037
:102C30009F002808BA80B82400906824000930005A
:102C400020F4361398F4361118F0360118053414B0
:102C500090F3362400F236151800200000F23617E3
:102C60009800580100000000000000000000000073
:102C700000000002000000FFFFFFFF000000000056
:102C800000000003000000FDFFFFFF010000000046
:102C900000000004000000FAFFFFFF04000000FF36
:102CA000FFFFFFEB8A13362400103E10B8113E05DB
:102CB00038023E2400300010009ACE0200000000CE
:102CC000020229C0C324B0240020C0240000000058
:102CD00002022885BC9A6E02008241240000000096
:102CE00004022845C21AAE240004614C9800002456
:102CF00000022989F2020008C20361E5E40229808A
:102D0000F28A408C18022980F28A4041418345654D
:102D100064022840C2CACECC1B08C42400E2F2C818
:102D20001BF136051800201100F036109800200025
:102D30000092DC24000F8B0600178A1336001C93C8
:102D400060E3E10000C3030600959F32B1159400D3
:102D50003501FC0228D5D106A32400060097D33FF5
:102D60000001C000354C1811B0E5E482B1041C002C
:102D7000D44C180000050252AC02380600C2D3122F
:102D800042240000F4574082B1041C00D4240052B5
:102D9000AC041442D124000000C43F42B1240022FC
:102DA00041C21B00F457400037244001D16564063E
:102DB0000097D3003F14382500D4FF060017D31026
:102DC000370C160600949FF037D573926C083810B4
:102DD0003F2400F03F2440093040100930C1131057
:102DE000602400000024000329052A0200C8CD0247
:102DF0002814D00600010010402400050001F61040
:102E000060240000004000022894D13000970400A4
:102E10003F2400F23614183043039800200000804D
:102E200088C11B4A8B13362400223E06B8053E1487
:102E3000B81536240000000A80103E0138103E0309
:102E4000B8113E077848680C9311340D789A45C044
:102E5000100000010212604E3800004102022815E5
:102E6000D912600F38022445D80000240000300138
:102E70000001310784FE6C240042AC24004EAF40B8
:102E800020113924800228C0E400002400000081C1
:102E900002022855DC12605544022485DB00002420
:102EA000000030010001310784F24C240042AC24C0
:102EB000004EAF4020113924800228C0E4000024D5
:102EC0000000002400022895E08040240010310119
:102ED000040FF203020224C5DFD68D2400CE4D2458
:102EE00000FEF124004EAF2400C66D4620DFF10342
:102EF000024FAF11100EF2CC07D68D86240228C0E7
:102F0000E40000240000002400022815E30000244F
:102F100000FF0FD1FF022445E2103001004FAC0149
:102F200008213824800228C0E400002400FF0FD1CB
:102F3000FF022485E4103001000135079447AC01FD
:102F4000084EAF8220113D2480F33624C0F3360DA5
:102F500098F1360758F0360398F036011805341406
:102F600090E336240000200000F23606989C8B0681
:102F700000979F003E155C060097D33F0001C000FC
:102F800035403811B0E5E482B1041C00D44C18007F
:102F900000050252AC02380600C2D312422400825D
:102FA000B157400137240000D4240052AC0414422D
:102FB000D124000000C43F42B124002241C21B00C2
:102FC000F457400037244001D16564060097D300D0
:102FD0003F14382500D4FF060017D310370C16060F
:102FE00000949FF037D573926C2400103F4010F08E
:102FF0003FC1531060240000002400022894F00612
:1030000000010010402400050001F61060D49B0070
:10301000004000022814F230009704003F24000012
:10302000200000F0360058CA8B103E12B8113E1036
:10303000B8123E24000600929F2500D0FF043ED126
:103040004B813147F88CB6404409300208246006B1
:10305000380600108A0329052A020088F4000000BF
:1030600008016102162EAF24001442E31B0EAF11BB
:1030700018FF0F00FC00B2C79B0000C0030228C568
:10308000F804B202A0022900E7133602208046C8E5
:103090001BF136109800200000F0361298E78B00E4
:1030A00000000402612400113E05380228C9FC0218
:1030B0003E2400022980F28A408C18022980F28A7C
:1030C0004041418245C81B00200000F1360518022E
:1030D0002980F202414C1882B1C81B00200000F187
:1030E000360518F88B13362400123E15B8113E072A
:1030F000B8133E0EF8033E24400C68240000002460
:1031000000032818029C4024000324C60100000A82
:1031100000113124C04EFE0700BE472400FEF624F5
:1031200000113824C0F3362440F3360ED8F13607A8
:103130009800200000F23615980D8C1336240012EA
:103140003E15B8113E07B8133E0EF8033E24400C5E
:1031500068240000002400032858079C4024000332
:1031600024060700000A00113124C04EFE0780BE6D
:10317000472400FEF6240009304720F3362440F3AC
:10318000360ED8F136079800200000F23615982246
:103190008C032ACE08123E17B8103E023800000AEF
:1031A000800600979F0930C21F043E005C2060101B
:1031B000B8300051040328940B060002002040247C
:1031C00000050002FB246024002500D0FF0328D165
:1031D0000D0031111C84B22400300090040038240A
:1031E000802500D0FF80391018F436117CF03602AB
:1031F00018300017070236248000210000053FD751
:10320000DBF1820300970813362400003E013800EA
:10321000F4C0550000970800F4C0570000240000D7
:10322000200000F0360118FA82082A8E1B00288040
:10323000BC000097BEFD82060097D300200000006E
:103240003F24003E8C060097D30020000000372466
:1032500000418C83B1E3E10000030232ACD540228F
:10326000D124000000C33F32B124000600C3D316AE
:1032700043240000F4D5400035035800200000101E
:10328000D0C11B4D8C13362400223E15B8053E14C8
:10329000B81536240000000A80103E0138103E03A5
:1032A000B884B805B888B84438113E0DB8033E0E4E
:1032B000F80000CE0300F483400324CE1B00F40585
:1032C000410000060262A524005A452400200006A1
:1032D0000012D324006CB12400200006000328450E
:1032E0001A42D324000000C60142D324006AD52428
:1032F0000020000600484424006CB1240020004651
:10330000010328C51B0000240068D4240036432490
:1033100000000000400600C1D306000693224124AD
:10332000002C4655409240043412B59541946201F8
:1033300034006224000000CE030328511688B8240C
:1033400000F3360ED8F1360D98F1360518F0360335
:1033500098F036011805341490E33624000020005C
:1033600000F2361598858C13362400123E17B812D9
:103370003E1538053E14B81536240000000A8010AA
:103380003E013880B810B80600D09F103E01808200
:10339000411138060011D3032805250600108A00C4
:1033A00000000282BC00A01039240003294013F061
:1033B0003924400600909F0600519F093000000903
:1033C00030010414602400000024000329052A03AE
:1033D000000826F4362440F0361098F0360118051F
:1033E000341490F3362400F236151800200000F251
:1033F000361798A88C13362400123E17B8123E15C3
:1034000038053E14B80A2900D90536240010298051
:10341000011336240005341490F3362400F23615D7
:103420001800200000F2361798B58C1336240012CD
:103430003E17B8123E1538053E14B8153624000064
:10344000000A80103E03B806000200113E05381144
:103450003E07B8143E11380600909F043E13B80989
:103460003012001332240000F4804426602400004F
:103470000024000328953200002400000012000000
:10348000F480440600509F093002002660240000AA
:103490000024000329052A030088320600939F01B7
:1034A00032110C8AB506040600118A8E4600848CFF
:1034B000B61398EECFD21B000004080EAF11988609
:1034C0004FD01B00002100186407984868C61B46AF
:1034D000AD059800F48040F1362400F036039805DD
:1034E000341490F3362400F236151800200000F250
:1034F000361798E78C13362400123E17B8123E1583
:1035000038053E14B81536240000000A80103E012C
:1035100038103E03B8113E05380328C040043E1160
:103520003800000104022980F213362400000080D4
:103530000082B80C1300F4104510300C91F03024C8
:10354000C0C26D240010382400F03824400000016F
:10355000020031240010B0240000002400032815CC
:10356000440000240094680C1386B84010303424C2
:1035700040CA6D2400300011000328913C00002453
:1035800000D2BC24000000010203280544000024EE
:1035900000022980F213362400F4361118F13605A2
:1035A00018F0360398F036011805341490F33624D9
:1035B00000F236151800200000F2361798198D1306
:1035C000362400123E15B800000A80143E1378100D
:1035D0003E03B8113E0538113E07B8133E0EF812EF
:1035E000682400033E1078FF0FD3FF00009100868F
:1035F000BD5098103E0438003E12788ABECC8B9E97
:103600004086800324474B49FE21286A520188875F
:103610005C0E28BA4E12988642E14084B2C11BE685
:103620004D240017AD2726DE4F04989844C01B0098
:1036300000240003285549113A07A8F3362440F323
:10364000360ED8F1360798F1360518F0360398F49F
:1036500036135800200000F2361598408D1336249A
:1036600000123E15B800000A80103E03B8113E0556
:1036700038113E07B8133E0EF812682400033E10BE
:103680007809305018103E0438103E1278F3322476
:103690000086BD24009140E3E2093046000324C0C7
:1036A0005609304700F03201081FFE65648A5E2427
:1036B00000BA442400E2FE24008A5D0018824460BF
:1036C00041BA484680C64D2218E64D4780F336245D
:1036D00000F036125817AD2726DE4F04989844C0E4
:1036E0001B0000240003285552113A07A8F3362482
:1036F00040F3360ED8F1360798F1360518F0360348
:103700009800200000F23615986B8D80404C1813FD
:103710003E0F780328C55C90400EB80324405C043B
:103720003E400410384004043624000930CE1B0308
:1037300036CF5B00200000000024000003070606CF
:103740000606060606060606060606060606060619
:103750000606060606060606060606060606060609
:1037600006060606060606060606060606060606F9
:1037700006060606060606060606060606060606E9
:103C00000606060606060606060606060706060752
:103C10000606060606060606060606060606060644
:103C20000606060606060606060606060606060634
:103C30000606060606060606060606060606060624
:103C40000606060606060606060606060606060614
:103C50000606060606060606060606060606060604
:103C600006060606060606060606060606060606F4
:103C700006060606060606060606060606060606E4
:103C800006060606060606060606060606060606D4
:103C900006060606060606060606060606060606C4
:103CA00006060606060606060606060607060607B2
:103CB00006060606060606060606060606060606A4
:103CC0000606060606060606060606060606060694
:103CD0000606060606060606060606060606060684
:103CE0000606060606060606060606060606060674
:103CF0000706060606060606060606060606060663
:103D00000606060606060606060606060607060652
:103D10000706060706060606060606060606060641
:103D20000606060606060606060606060606060633
:103D30000606060606060606060606060606060623
:103D40000606070606060606060606060606060612
:103D50000606060606060606060606060606060603
:103D600006060606060606060606060606060606F3
:103D700006060606060606060606060606060606E3
:103D800006060606060606060606060606060606D3
:103D900006060606060606060606060606060606C3
:103DA00006060606060606060606060606060606B3
:103DB00006060606060606060606060606060606A3
:103DC0000606060606060606060606060606060693
:103DD0000606060606060606060606060606060683
:103DE0000606060606060606060606060606060673
:103DF0000606060606060606060606060606060663
:103E00000606060606060606060606060606060652
:103E10000606060606060606060606060606060642
:103E20000606060606060606060606060606060632
:103E30000606060606060606060606060606060622
:103E40000606060606060606060606060606060612
:103E50000606060606060606060606060606060602
:103E600006060606060606060606060606060606F2
:103E700006060606060606060606060606060606E2
:103E800006060606060606060606060606060606D2
:103E900006060606060606060606060606060606C2
:103EA00006060606060606060606060606060606B2
:103EB00006060606060706060606060606060606A1
:103EC0000606060606060606060606060606060692
:103ED0000606060606060606060606060606060682
:103EE0000606060606060606060606060606060672
:103EF0000606060606060606060606060606060662
:103F00000606060606060606070606060606060650
:103F10000606060606060606060606060606060641
:103F20000606060606060606060606060606060631
:103F30000606060606060606060606060606060621
:103F40000606060606060606060606060606060611
:103F50000606060706060606060606060606060600
:103F600006060606060606060606060606060606F1
:103F700006060606060606060606060606060606E1
:103F800006060606060606060606060606060606D1
:103F900006060606060606060606060606060606C1
:103FA00006060606060606060606060606060606B1
:103FB00006060606060606060606060606060606A1
:103FC0000606060606060606060606060606060691
:103FD0000606060606060606060606060606060681
:103FE0000606060606060606060606060606060671
:103FF0000606060606060606060606060606060661
:104000000606060606060606060606060606060650
:104010000606060606060606060606060606060640
:104020000606060606060606060606060606060630
:10403000060606060606070606060606060606061F
:104040000606060606060606060606060606060610
:104050000606060606060606060606060606060600
:1040600006060606060606060606060606060606F0
:1040700006060606060606060606060606060607DF
:1040800006060606060606060606060606060606D0
:1040900006060606060606060606060606060606C0
:1040A00006060606060606060606060606060606B0
:1040B00006060606060606060606060606060606A0
:1040C000060606060606060606060606060706068F
:1040D0000606060606060606060606060606060680
:1040E0000606060606060606060606060606060670
:1040F0000606060606060606060606060606060660
:10410000060606060606060606060606060606064F
:10430000060607060606060606060606060606064C
:10431000060606060606060606060606060606063D
:10432000060606060606060606060606060606062D
:10433000060606060606060606060606060606061D
:10434000060606060606060606060606060606060D
:1043500006060606060606060606060606060606FD
:1043600006060606060606060606060606060606ED
:1043700006060606060606060606060606060606DD
:1043800006060606060606060606060606060606CD
:1043900006060606060606060606060606060606BD
:1043A00006060606060606060606060606060606AD
:1043B000060606060606060606060606060606069D
:1043C000060606060606060606060606060606068D
:1043D000060606060606060606060606060606067D
:1043E000060606060606060606060606060606066D
:1043F000060606060606060606060606060606065D
:10440000060606060606060606060606060606064C
:10441000060606060606060606060606060606063C
:10442000060606060606060606060606060606062C
:10443000060606060606060606060606060606061C
:10444000060606060606060606060606060606060C
:1044500006060606060606060606060606060606FC
:1044600006060606060606060606060606060606EC
:1044700006070606060606060606060606060606DB
:1044800006060606060606060606060606060606CC
:1044900006060606060606060606060606060606BC
:1044A00006060606060606060606060606060606AC
:1044B000060606060606060606060606060606069C
:104BD0000606060606060606070606060606060674
:104BE0000606060606060606060606060606060665
:104BF0000606060606060606060606060606060655
:104C00000606060606060606060606060606060644
:104C10000606060606060606060606060606060634
:104C20000606060606060606060606060606060624
:104C30000606060606060606060606060606060614
:104C40000606060606060606060606060606060604
:104C500006060606060606060606060606060606F4
:104C600006060606060606060606060606060606E4
:104C700006060606060606060606060606060606D4
:104C800006060606060606060606060606060606C4
:104C900006060606060606060606060606060606B4
:104CA00006060606060606060606060606060606A4
:104CB0000606060606060606060606060607060693
:104CC0000606060606060606060606060606060684
:104CD0000606060606060606060606060606070673
:104CE0000606060606060606060606060606060664
:104CF0000606060606060606060606060606060654
:104D00000606060606060606060606060606060643
:104D10000606060606060606060606060606060633
:104D20000606060606060607060606060606060622
:104D30000606060606060606060606060606060613
:104D40000606060606060606060606060606060603
:104D500006060606060606060606060606060606F3
:104D600006060606060606060606060606060606E3
:104D700006060606060606060606060606060606D3
:104D800006060606060606060606060606060606C3
:104D900006060606060606060606060606060706B2
:104DA00006060606060606060606060606060606A3
:104DB0000606060606060606060606060606060693
:104DC0000606060606060606060606060606060683
:104DD0000606060606060606060606060606060673
:104DE0000606060606060606060606060606060663
:104DF0000606060606060606060606060606060653
:104E00000606060606060606060606060606060642
:104E10000606060606060606060606060606060632
:104E20000606060606060606060606060606060622
:104E30000606060606060606060606060606060612
:104E40000606060706060606060606060606060601
:104E500006060606060606060606060606060606F2
:104E600006060606060606060606060606060606E2
:104E700006060606060606060606060606060606D2
:104E800006060606060606060606060606060606C2
:104E900006060606060606060606060606060606B2
:104EA00007060606060606060606060606060606A1
:104EB0000606060606060606060606060606060692
:104EC0000606060606060606060606060606060682
:104ED0000606060606060606060606070606060671
:104EE0000606060606060606060606060606060662
:104EF0000606060606060606060606060606070651
:104F00000606060606060606060606060606060641
:104F10000606060606060606060606060606060631
:104F20000606060606060606060706060606060620
:104F30000606060606060606060606060606060611
:104F40000606060606060606060606060606060601
:104F500006060606070606060606060606060606F0
:104F600006060606060606060606060606060606E1
:104F700006060606060606060606060606060606D1
:104F800006060606060606060606060606070606C0
:104F900006060606060606060606060606060606B1
:104FA000070606060606060706060606060607069E
:104FB0000606060606070606060606060606060690
:104FC0000606060606060606060606060606070680
:104FD0000606060606060606060606060606060671
:104FE0000606060606060606060606060606060661
:104FF0000606060606060606060606060606060651
:105000000606060606060606060606060606060640
:105010000606060606060606060606060606060630
:105020000606060606060606060606060606060620
:10503000060606060606060606060606060606070F
:105040000606060606060606060606060606060600
:1050500006060606060606060606060606060606F0
:1050600006060606060606060606060606060606E0
:1050700006060606060606060606060606060606D0
:1050800006060606060607060606060606060606BF
:1050900006060606060606060606060606060606B0
:1050A000060706060606060606060606060606069F
:1050B0000606060606060606060606060606060690
:1050C0000606060606060606060606060606060680
:1050D0000606060606060606060606060606060670
:1050E0000606060606060606060606060606060660
:1050F0000606060606060606060606060606060650
:10510000060606060606070606060606060606063E
:10511000060606060606060606060606060606062F
:10512000060606060606060606060606060606061F
:10513000060606060606060606060606060606060F
:1051400006060606060606060606060606060606FF
:1051500006060606060606060606060606060606EF
:1051600006060606060606060606060706060606DE
:1051700006060606060606060606060606060606CF
:1051800006060606060606060606060606060606BF
:1051900006060606060606060606060606060606AF
:1051A000060606060606060606060606060606069F
:1051B000060606060606060606060706060606068E
:1051C000060606060606060606060606060606067F
:1051D000060606060606060606060606060606066F
:1051E000060606060606060606060606060606065F
:1051F000060606060606060606060606060606064F
:10520000060606060606060606060606060606063E
:10521000060706060606060606060606060606062D
:10522000060606060606060606060A0011241FBE26
:10523000CFEFD0E1DEBFCDBF1AE0A0E0B1E0EAE7FA
:10524000FEE802C005900D92AC39B107D9F71DE018
:10525000ACE9BAE001C01D92A238B107E1F70E94A3
:10526000E6430C943B470C940000CF93DF932091CE
:10527000330D4091350D6091320D8091340D0E94B7
:1052800015438BE291E00E94673C8091320D8823A8
:10529000D1F08BE20E94583C6091320D70E080E0CA
:1052A00090E041E00E94773C83E391E00E94673CFC
:1052B0006091330D70E080E090E041E00E94773C27
:1052C0008AE391E002C08EE391E00E94673C82E4B1
:1052D00091E00E94673C2091340D211103C08CE4C1
:1052E00091E032C0822F90E027FD04C0EC0182E5FE
:1052F00091E006C0C0E0D1E0C81BD90B84E591E085
:105300000E94673CBE01660F771F6C0F7D1F76956C
:10531000679580E090E041E00E94773C8091340DF9
:1053200080FF04C086E591E00E94673C83E391E042
:105330000E94673C6091350D70E080E090E041E0B4
:105340000E94773C89E591E0DF91CF910C94673C16
:105350006F927F928F929F92AF92BF92CF92DF9285
:10536000EF92FF920F931F93CF93DF93C7E3DDE09C
:1053700049914F3F51F000E020E06BE081E00E9456
:10538000B53282E59DE00E9427318DE0CF33D8070A
:1053900079F78091DA0C833008F05EC020E4622E49
:1053A0002DE0722E35E4A32E3DE0B32EE301C12C97
:1053B000D12C76018FE591E00E94673C41E0C70166
:1053C000B6010E94773C88E691E00E94673C4E015E
:1053D000699170E080E090E041E00E94773C87E7CF
:1053E00091E00E94673C1C2F16198091DA0C00E0B6
:1053F000F4012081412F6CE08B5F0E94B53282E581
:105400009DE00E9427318DE791E00E94673C4501B5
:10541000F50161915F0170E080E090E041E00E9461
:10542000773C0E94733C8091DA0CF4012081412F7B
:105430006DE08B5F0E94B53282E59DE00E942731CE
:10544000FFEFCF1ADF0AEF0AFF0A85E0C816D10482
:10545000E104F10409F0AECFDF91CF911F910F91DC
:10546000FF90EF90DF90CF90BF90AF909F908F9084
:105470007F906F900895CF938091780D8823E1F10C
:10548000C091CF0C61E08FEC9CE00E944F3CC43790
:10549000F1F48AEF0E94C03781E991E00E94673CF5
:1054A0006091A00A70E080E090E041E00E94773CCB
:1054B0008BE991E00E94673C60919F0A70E080E078
:1054C00090E041E00E94773CCF910C94733C8C2F8C
:1054D0000E94733A811110C088EA91E00E94673CF3
:1054E0006C2F70E080E090E041E00E94773C8AEA17
:1054F00091E0CF910C94673CCF9108950F93CF9397
:1055000003E020E040E062E00E94B532882349F0E9
:10551000C091550D82E59DE00E9427318C2FCA3045
:1055200008F089E0CF910F9108958091BF0C909180
:10553000C00C892B99F08091C70C882351F0809181
:10554000B60C811102C08FE30CC0823049F080E0BC
:1055500008C08091D90C8823B1F302C08FE701C045
:105560008FE59091C20C911101C0857F4091DC0CB8
:10557000442359F050E04150510921E030E001C08E
:10558000220F4A95EAF7209582230C94A7360F93B1
:10559000CF93C82F8091B60CE82FF0E0E352F34F81
:1055A00090819930C9F190910001891304C09091C4
:1055B0009C0AC91789F180930001C0939C0AC1110C
:1055C0001092BC0C833041F18EEA91E00E94673C5E
:1055D0006C2F70E080E090E043E00E94773C89EB24
:1055E00091E00E94673C6091B60C70E080E090E032
:1055F00041E00E94773C0E94733C8091B60C00E031
:1056000020E04C2F64E08B5F0E94B53282E59DE084
:10561000CF910F910C942731CF910F910895CF9393
:10562000C82F8330B1F41092B60C0EC0F0E0E352F4
:10563000F34F8081893019F080E00E94892A80919F
:10564000B60C8F5F8093B60CE091B60CE33070F32C
:105650000DC08091B60CC81749F0833039F080E056
:105660000E94892A8AE090E00E94593BC093B60CC0
:10567000EC2FF0E0E352F34FE081E093D70CF0E041
:10568000DF01AA0FBB1FAA0FBB1FA550B34F8C9100
:105690008093BD0CEE0FFF1FEE0FFF1FE551F34F80
:1056A00081898093C60C82898093DB0C83898093E7
:1056B000C80C83EC91E00E94673C6091B60C70E0EE
:1056C00080E090E041E00E94773C88EC91E00E940D
:1056D000673C6091BD0C70E080E090E041E00E948A
:1056E000773C8FEC91E00E94673C6091C60C70E0C3
:1056F00080E090E041E00E94773C85ED91E00E94DF
:10570000673C6091DB0C70E080E090E041E00E943B
:10571000773C8CED91E00E94673C6091C80C70E092
:1057200080E090E041E00E94773C82EE91E00E94B0
:10573000673C6091D10C70E080E090E041E00E9415
:10574000773C0E94733CC330E1F09091D10C809182
:10575000C80C891708F40AC02091BF0C3091C00C06
:10576000232B39F08091C60C981718F48093D10C34
:1057700005C08091B60CC81721F0892FCF910C94E9
:10578000892ACF910895FF920F931F93CF93DF93B0
:10579000F82E162FC62FD0E0FE01E553F34F0081FF
:1057A00088EE91E00E94673C6F2D70E080E090E011
:1057B00041E00E94773C89EB91E00E94673C612FB9
:1057C00070E080E090E041E00E94773CEF2DF0E057
:1057D000EE53F34F808181110FC082EF91E00E9460
:1057E000673CF090C20C81E0F8266F2D70E080E0FD
:1057F00090E041E00E94773C0E94733C0F15B1F1AC
:10580000FE01E352F34F8081893081F1043060F46E
:10581000A02FB0E0A954B34FEF2DF0E0E954F34FBF
:105820009C918081981781F0EF2DF0E0E954F34FBF
:1058300000E020E0408168E0812F8B5F0E94B5325C
:1058400082E59DE00E942731C553D34FF882F09244
:10585000D90C612F8F2D0E94D73184E690E0DF9123
:10586000CF911F910F91FF900C94593BDF91CF91F5
:105870001F910F91FF900895CF93C82F60E00E9471
:10588000852B61E08C2F0E94852B62E08C2FCF91BD
:105890000C94852B843010F40C94D12A08958091B7
:1058A0002D0D833088F08091DA0C833068F0809180
:1058B000DD0C893030F08091DF0C893020F482E0FB
:1058C00003C080E001C081E00C940C2CCF9382E0F7
:1058D00092E00E94673C1092C00C1092BF0C809125
:1058E0002A0D843010F460E01AC08091DD0C8930FC
:1058F000C1F08091C40C882319F060E082E00FC0F1
:105900008091C50C882319F060E083E008C0809185
:10591000C30C60E0882311F081E001C080E00E94A8
:10592000852B80912B0D843010F461E00CC08091A8
:10593000DE0C893051F08091C30C61E0882311F0B6
:1059400081E001C080E00E94852B80912C0D843085
:1059500010F462E01AC08091DF0C8930C1F08091B0
:10596000C50C882319F062E083E00FC08091C40C5D
:10597000882319F062E082E008C08091C30C62E0E5
:10598000882311F081E001C080E00E94852B0E94F5
:10599000112CC091B60C84E192E00E94673C1092F9
:1059A000B60C44C090E0DC01AE52B34FFC01E352B0
:1059B000F34FE08184E0E89FF0011124E551F34FBB
:1059C00082898C938BE292E00E94673C6091B60CD6
:1059D00070E080E090E041E00E94773C88E392E054
:1059E0000E94673CE091B60CF0E0EE52F34F60810C
:1059F00070E080E090E043E00E94773C0E94733CBE
:105A0000E091B60CF0E0E352F34FE08184E0E89FD0
:105A1000F0011124E550F34F80818093D10C0E9456
:105A2000892A8091B60C8F5F8093B60C8091B60C5A
:105A3000833008F4B7CFC093B60C8091BD0C80932F
:105A4000D10C89E492E00E94673C6091D10C70E037
:105A500080E090E041E00E94773C0E94733C80919E
:105A60009F0A882321F080E0CF910C946338CF9176
:105A70000895CF93DF9389E592E00E94673CC2ECE2
:105A8000DCE080E20E94583C699170E080E090E0A8
:105A900041E00E94773C8CE0C63CD80791F785E650
:105AA00092E00E94673CCDEDDCE080E20E94583C31
:105AB000699170E080E090E041E00E94773C8CE0EA
:105AC000C03ED80791F7DF91CF910C94733CCF93F0
:105AD000DF93D82F8091C70CD73071F0D83039F0D0
:105AE000D63099F4C0912F0DC7FF11C009C0C091E5
:105AF000300DC7FF0EC004C0C091310DC7FF0BC0F1
:105B0000C6FB882780F9CF7007C0CD2F05C0C6E03F
:105B100003C0C8E001C0C7E081113DC08091C20C44
:105B2000882309F4F8C0C63029F48091D90C81117A
:105B300010C006C0C73069F48091D90C813049F497
:105B400082E08093B50C84E792E0DF91CF910C94D2
:105B5000673C8091BF0C9091C00C892B21F0809103
:105B60003F0D882331F081E00E94373881E0809337
:105B7000D80CC63011F480E001C081E00E94FE2BF9
:105B80009091D10C8091DB0C981708F0C4C082E092
:105B90008093B50CC0C08AE992E00E94673C2091D6
:105BA000BF0C3091C00C232B51F1C63029F48091E9
:105BB000B60C882371F023C0C83029F48091B60C4C
:105BC0008130E9F406C0C730D1F48091B60C823040
:105BD000B1F481E08093B50C8CE491E00E94673CC5
:105BE00004C00E94DB370E94572A0E9479368D1725
:105BF000C1F38AE090E0DF91CF910C94593B6C2F78
:105C000070E080E090E041E00E94773C0E94733CAD
:105C10008091BF0C9091C00C892B69F42091C60C27
:105C20008091280D9091290D9093C00C8093BF0C0A
:105C30002093D10C2BC08091DA0C833019F5E091C0
:105C4000B60CF0E0EE52F34F8091D10C80838DEAD8
:105C500092E00E94673C6091B60C70E080E090E0BA
:105C600041E00E94773C80E492E00E94673C6091B2
:105C7000D10C70E080E090E043E00E94773C0E940D
:105C8000733C07C08091C60C8093D10C82E0809356
:105C9000B50CC63011F480E005C0C83011F481E0C5
:105CA00001C082E00E94D12A8091DA0C833099F5FC
:105CB0002091BF0C3091C00C8091280D9091290D3E
:105CC0002817390741F1E091B60CF0E0EE52F34F9E
:105CD00080818093D10C89EB92E00E94673C6091B7
:105CE000B60C70E080E090E041E00E94773C80E4F8
:105CF00092E00E94673C6091D10C70E080E090E0FF
:105D000043E00E94773C0E94733C8091D10CDF916C
:105D1000CF910C94892ADF91CF910895CF93C82F0A
:105D20008091C20C882309F449C080E00E94633846
:105D30002091BF0C3091C00C232B89F481E080931B
:105D4000D80C82E08093B50C8091280D9091290D9C
:105D50009093C00C8093BF0C0E94112C25C08091A1
:105D6000D90C81110BC0C43069F48091D80C8F5FBD
:105D70008093D80C9091BB0C9817B0F481E080937D
:105D8000D80C12C08091D00C882359F08091D80C87
:105D900081508093D80C811104C08091BB0C8093FA
:105DA000D80C8AE08093D00C8091D80C0E943738B0
:105DB00080E00E94FE2BCF910C94572ACF9108953A
:105DC0008091BF0C9091C00C892B21F48091BD0C67
:105DD000803350F08091D90C811109C090919F0AB5
:105DE00081E089270C94633884E00C94502E8091D4
:105DF000BC0C882319F08093D10C07C08091D10C82
:105E00008093BC0C1092D10C80E00C94892ACF9323
:105E1000C82F2091BF0C3091C00C232B31F520915D
:105E2000280D3091290D3093C00C2093BF0C0E9497
:105E3000112C80912E0D843008F408C09091E10C53
:105E40009150923010F481E001C080E00E94FE2B5E
:105E50008091BD0C803348F481E00E94373881E0A6
:105E60008093D80C82E08093B50C8091B50C823081
:105E700009F041C044C09091D10CC13089F46091C7
:105E8000C80C961720F57091230D272F30E0290FAD
:105E9000311D462F50E0421753079CF0970F0EC05C
:105EA0006091C60C7091230D492F50E0272F30E0F0
:105EB000260F311D4217530724F0971B9093D10CE6
:105EC00002C06093D10C8091D10C0E94892A0E945B
:105ED000643B07C00E94DB370E9423330E94572A8D
:105EE000A8950E94693B8A3F9105A0F39091C90C47
:105EF0009D5F9093C90C0E9479368111BCCFCF91E0
:105F000008950F9380919D0A8F5F80939D0A85303D
:105F100079F48091B60C00E020E04091D10C64E06F
:105F20008B5F0E94B53282E59DE00F910C94273182
:105F30008B3010F010929D0A0F910895CF93C82FC7
:105F4000A8959091C90C9F5F9093C90C9091D00C2B
:105F5000992319F091509093D00C8091C20C882312
:105F600049F08091A00A811105C02A9861E081E082
:105F70000E942E338091C20C8823E1F0C1111AC017
:105F80008091D80C8F5F8093D80C9091BB0C9817A0
:105F900018F481E08093D80C8091D80C0E94373897
:105FA000811108C088EC92E00E94673C80E197E292
:105FB0000E94593B0E9423330E94FD290E9479369A
:105FC0008093DC0C2091E10C233021F48650823048
:105FD000A0F411C09091A00A213039F4911105C0AC
:105FE000982F9650923038F002C0911106C082303E
:105FF00011F0843011F41092DC0C9091360D8091E8
:10600000CA0C911106C09091DC0C953011F480936C
:10601000DC0C9091DC0C891771F089EF92E00E9402
:10602000673C6091DC0C70E080E090E041E00E9411
:10603000773C0E94733C8091DC0C882369F090913E
:10604000CA0C981749F00E948136882329F060E035
:1060500080914B0D0E942E338091DC0C882389F0B7
:10606000853079F080919F0A882319F080E00E94A2
:1060700063388091BC0C882321F08093D10C0E945E
:10608000892A8091DC0C8430B1F030F4823099F0B0
:10609000C8F4813009F516C08530B9F08930E0F4D4
:1060A0009091CA0C8917C1F09091E10C9330A1F046
:1060B0000E94292D11C09091CA0C891769F00E9485
:1060C000502E0AC00E94C92E07C08091CA0C85308C
:1060D00019F085E00E94A22E8091DC0C8093CA0CFE
:1060E000882349F08091280D9091290D9093C00C40
:1060F0008093BF0C14C08091BF0C9091C00C00978E
:1061000071F001979093C00C8093BF0C892B39F4E8
:106110008EEF92E00E94673C81E08093B50C809105
:10612000B50C813021F0823009F060C02EC08DE0C6
:1061300093E00E94673C4091D10C8091C60C4817B7
:1061400088F05091240D242F30E06091BD0C852FF4
:1061500090E0860F911D2817390724F0451B4093C6
:10616000D10C04C08091BD0C8093D10C8091D10CD6
:106170000E94892A9091D10C8091BD0C8917B0F1B1
:106180001092B50C0E94282C31C08CE193E00E9443
:10619000673C5091D10C4091DB0C541768F460912E
:1061A000240D862F90E0850F911D242F30E02817B5
:1061B00039079CF0560F0EC04517B0F46091240DBE
:1061C000252F30E0862F90E0840F911D2817390786
:1061D00024F0561B5093D10C02C04093D10C8091F7
:1061E000D10C0E94892A02C01092B50C0E94432F44
:1061F000CF910C94572A17981092E30C1092E50C4B
:106200001092E60C1092E20C1092E80C1092E70C3F
:106210008093E40C1092CD0086E28093CC0088E558
:106220008093C90086E08093CA0008951F93CF939E
:10623000DF93EC01162F8091E50C882321F085ED8A
:1062400094E00E94673C8091E20C882321F08EEE5E
:1062500094E00E94673C8091E50C8111FCCF809115
:10626000E20C8111F8CF81E0888329812F70809121
:10627000E40C30E1839FC0011124282B2983FE0107
:10628000319694E081E02191820F9150E1F78D8366
:10629000179A81E090E00E94593B81E08093E50CE1
:1062A000D093EA0CC093E90C1092E60C8091C900DF
:1062B00080628093C900112321F08091E50C811147
:1062C000FCCFDF91CF911F9108951092E20C909333
:1062D000E80C8093E70C1092E30CE9ECF0E080818D
:1062E0008068808308951F920F920FB60F92112439
:1062F0002F933F934F938F939F93AF93BF93EF93BE
:10630000FF934091CE008091E70C9091E80C0097AC
:1063100009F441C02091E20C2630E8F52091E30C0D
:10632000211139C022E030E03093710D2093700DBF
:106330002091E20CFC01E20FF11D40838091E20C00
:10634000811102C0413039F58091E20C8530F0F0C6
:106350001092710D1092700DE091E70CF091E80C25
:10636000DF01119694E081E02D91820F9150E1F7C9
:10637000841309C081818F709091E40C891303C04C
:1063800081E08093E30C1092E20C05C08091E20C56
:106390008F5F8093E20CFF91EF91BF91AF919F913E
:1063A0008F914F913F912F910F900FBE0F901F90A3
:1063B00018951F920F920FB60F9211248F939F93EF
:1063C000EF93FF938091E60C863068F4E091E90C3E
:1063D000F091EA0CE80FF11D90819093CE008F5F51
:1063E0008093E60C05C08091C9008F7D8093C90021
:1063F000FF91EF919F918F910F900FBE0F901F9083
:1064000018951F920F920FB60F9211248F939F939E
:1064100081E090E090936F0D80936E0D9F918F912E
:106420000F900FBE0F901F901895CF93DF93C82F3A
:10643000D62F86E095E00E94673C6C2F70E080E0EC
:1064400090E041E00E94773C89EB91E00E94673C3C
:106450006D2F70E080E090E041E00E94773C8EE09C
:1064600095E00E94673CD11112C0C13041F028F084
:10647000C23041F0C33091F507C05E9801C05E9A0A
:106480005F982CC05E9801C05E9A5F9A27C0D13099
:1064900091F4C13041F028F0C23041F0C330F1F442
:1064A00007C0429801C0429A439818C0429801C060
:1064B000429A439A13C0D23089F4C13041F028F097
:1064C000C23041F0C33051F407C0449801C0449A2F
:1064D000459804C0449801C0449A459ADF91CF91F1
:1064E00008958091530D82958F7080934D0D82E0B9
:1064F00090E00E94593B8091540D813081F030F042
:106500008730A1F1893009F061C039C081E195E09F
:106510000E94673C6091530D62956F701FC086E2C8
:1065200095E00E94673C6091530D62956F7070E03A
:1065300080E090E041E00E94773C81E395E00E949A
:10654000673C6091550D70E080E090E041E00E9472
:10655000773C80E20E94583C6091560D70E080E0EC
:1065600090E041E00E94773C0C94733C80914A0D8E
:10657000811138C08091550D0E947E3620C08091D7
:10658000550D807FB1F081E080934A0D8BE395E05B
:106590000E94673C8091550D8C7060E086958695D1
:1065A0000E94D7318091550D62E083700E94D731EF
:1065B00006C010924A0D88E495E00E94673C109254
:1065C0004E0D10924F0D1092500D07C091E0909318
:1065D0004E0D10924F0D8093500D61E08CE49DE0C4
:1065E0000C94D8300895AF92BF92CF92DF92EF9281
:1065F000FF920F931F93CF93DF93C82E162FB42EC5
:10660000A22E82E59DE00E94273180E1C89E7001A4
:10661000112485E0D82EC0924D0D10934E0DB092EE
:106620004F0DA092500D61E08CE49DE00E94D830A7
:106630000E94643B8091E30C882381F0E091530D2C
:10664000F0E0EE15FF0521F48091540D801759F10B
:106650000E94333282E59DE00E9427310E94DB37A1
:106660000E94693B8436910528F3123091F086E54B
:1066700095E00E94673CC2E5DDE080E20E94583C64
:1066800089910E94F83C8DE0C835D807B1F70E9487
:10669000733CDA9409F0BFCF123039F086E695E00A
:1066A0000E94673C02C081E001C080E0DF91CF9191
:1066B0001F910F91FF90EF90DF90CF90BF90AF9020
:1066C00008958091E30C882331F00E94333282E5F3
:1066D0009DE00C94273108950F931F93CF93DF9380
:1066E000182FC62F80934B0DA8958AE795E00E943E
:1066F000673C612F70E080E090E041E00E94773CD1
:10670000CC2321F085E895E00E94673C0E94733C11
:10671000A895D0E0106604E0C11101C0A89585E0FD
:106720000E94A73688EC90E00E94593B8AE00E94C4
:10673000A73688EC90E00E94593B015069F784EF3E
:1067400091E00E94593BC11101C0A895812F0E9480
:10675000A73680ED97E00E94593BDF5FD530D8F235
:10676000C111D9CFDF91CF911F910F910895CF9390
:10677000DF9300D0CDB7DEB789E190E029813A817F
:106780000197E1F70F900F90DF91CF91089510924C
:10679000580D88B18C7F88B9389839980C94793322
:1067A000CF93DF931F92CDB7DEB7882311F03998CE
:1067B00001C0399A89830E94793338980E947933CD
:1067C000389A0E94793389818111399A0F90DF912B
:1067D000CF910C947933CF9339980E9479333898BC
:1067E0000E947933C6B1389A0E947933C1FB882759
:1067F00080F9CF9108951092580D399A0E947933FB
:10680000389A0C94793338980E94793339980C94DB
:106810007933CF93DF931F92CDB7DEB789830E9480
:1068200079330E94C53389818093580D0F90DF9191
:10683000CF910895CF93DF93D82FC8E08D2F807824
:106840000E949233DD0FC150C9F7DF91CF910C94B4
:10685000AD331F93CF93DF93182FD8E0C0E0CC0F58
