:100000000C943E000C945B000C945B000C945B0021
:100010000C945B000C945B000C945B000C945B00F4
:100020000C945B000C945B000C945B000C945B00E4
:100030000C945B000C9475020C94FE010C945B0014
:100040000C946B020C945B000C945B000C945B00B2
:100050000C94A9020C947F020C945B000C945B003E
:100060000C945B000C945B000C945B000C945B00A4
:100070000C9404010C946A010C94920111241FBE8B
:10008000CFEFD0E1DEBFCDBF11E0A0E0B1E0EEEBFD
:10009000FAE002C005900D92A234B107D9F711E041
:1000A000A2E4B1E001C01D92AF35B107E1F70E94B3
:1000B000CB040C945D050C940000039B02C080E00F
:1000C00001C082E0029B8F5F0895019B02C080E027
:1000D00001C082E0009B8F5F089582E081B98FE0CC
:1000E00080B982B914B817B880E38AB913B816B8C2
:1000F00019B815B815B815B88BB180728BB95C9862
:1001000008950E946D000E94E3010E94E803789424
:100110000E94E1010C94E1011198109243011092A8
:10012000450110924601109242011092480110922E
:100130004701809344011092CD008FE18093CC0061
:1001400088E58093C90086E08093CA0008951F93D4
:10015000CF93DF93EC01162F80914501882321F086
:1001600080E191E00E940C0380914201882321F0FC
:1001700089E291E00E940C03809145018111FCCF3E
:10018000809142018111F8CF81E0888329812F700D
:100190008091440130E1839FC0011124282B2983E1
:1001A000FE01319694E081E02191820F9150E1F7B8
:1001B0008D83119A81E090E00E94550281E0809346
:1001C0004501D0934A01C0934901109246018091A4
:1001D000C90080628093C900112321F080914501FC
:1001E0008111FCCFDF91CF911F91089510924201B0
:1001F000909348018093470110924301E9ECF0E0AD
:1002000080818068808308951F920F920FB60F92AD
:1002100011242F933F934F938F939F93AF93BF934B
:10022000EF93FF934091CE00809147019091480158
:10023000009709F441C0209142012630E8F5209151
:100240004301211139C022E030E030934E01209368
:100250004D0120914201FC01E20FF11D408380918C
:100260004201811102C0413039F58091420185304F
:10027000F0F010924E0110924D01E0914701F09183
:100280004801DF01119694E081E02D91820F915099
:10029000E1F7841309C081818F7090914401891323
:1002A00003C081E0809343011092420105C0809118
:1002B00042018F5F80934201FF91EF91BF91AF9117
:1002C0009F918F914F913F912F910F900FBE0F9063
:1002D0001F9018951F920F920FB60F9211248F93B3
:1002E0009F93EF93FF9380914601863068F4E091ED
:1002F0004901F0914A01E80FF11D90819093CE00E1
:100300008F5F8093460105C08091C9008F7D8093E7
:10031000C900FF91EF919F918F910F900FBE0F90A9
:100320001F9018951F920F920FB60F9211248F9362
:100330009F9381E090E090934C0180934B019F91BB
:100340008F910F900FBE0F901F901895CF93C82FCD
:10035000803118F4882339F001C0CFE08C2F880F4A
:10036000C80FCC0FC3574C2F66E480E80E94570497
:100370004C2F67E480E8CF910C94570440ED60E483
:1003800080E80E94570442E260E680E80E94570439
:100390004DED68E780E80C94570440EE60E480E897
:1003A0000E9457044EEE68E780E80C94570440ED35
:1003B00060E480E80E94570442E26CE680E80C9416
:1003C00057040895089582E284BD82E085BD97E2D6
:1003D00097BD98BD80936E0010928000809381003D
:1003E00086E080936F0086E286BBEAE8F0E08081D9
:1003F00091818C53964F9183808308951F920F9221
:100400000FB60F9211248F939F9380918A00909141
:100410008B008854944F90938B0080938A00809136
:10042000510190915201892B49F080915101909195
:1004300052010197909352018093510180914F0195
:100440009091500101969093500180934F018091BB
:100450004B0190914C01892B71F080914B0190914F
:100460004C01019790934C0180934B01892B19F417
:1004700011981092450180914D0190914E01892B68
:1004800069F080914D0190914E01019790934E013A
:1004900080934D01892B11F4109242019F918F910D
:1004A0000F900FBE0F901F9018959093520180935C
:1004B00051018091510190915201892BD1F70895FA
:1004C0001092500110924F01089520914F013091E8
:1004D0005001C90108951F920F920FB60F92112477
:1004E0000F900FBE0F901F9018951F920F920FB68E
:1004F0000F9211240F900FBE0F901F9018951F920E
:100500000F920FB60F9211248F93EF93FF93809168
:100510005901882389F080915901815080935901B4
:10052000E0915A01F0915B0181918093C600F093B4
:100530005B01E0935A0105C08091C1008F7D8093DB
:10054000C100FF91EF918F910F900FBE0F901F9000
:1005500018951F920F920FB60F9211248F939F93AD
:10056000EF93FF939091C60080915801882399F0F2
:1005700080915801815080935801E0915501F0918C
:1005800056019193F0935601E093550180915301E8
:100590008F5F80935301FF91EF919F918F910F9007
:1005A0000FBE0F901F9018951092C5008FE1809399
:1005B000C40088E98093C10086E08093C200109255
:1005C00058011092590108956093590190935B016D
:1005D00080935A018091C10080628093C100809114
:1005E00059018111FCCF08959093560180935501D4
:1005F00060935801109253010895CF93DF931F9297
:10060000CDB7DEB7898361E0CE0101960E94E40296
:100610000F90DF91CF910895CF93DF93EC0102C04B
:100620000E94FD0289918111FBCFDF91CF91089546
:100630004F925F926F927F928F929F92AF92BF92F2
:10064000CF92DF92EF92FF920F931F93CF93DF939E
:1006500000D000D0CDB7DEB74B015C0109E010E05F
:10066000C12C9AECD92E9AE9E92E9BE3F92E2AE0C7
:10067000422E512C612C712C8C149D04AE04BF04AD
:1006800060F4C701B601A30192010E94240569012B
:100690007A010150110981F732C082E0C816D104F5
:1006A000E104F10460F18AE0482E512C612C712C98
:1006B000C501B401A70196010E942405822F805D27
:1006C00029833A834B835C830E94FD0229813A810E
:1006D0004B815C81C701B6010E941405861A970AF6
:1006E000A80AB90AC701B601A30192010E94240514
:1006F00069017A012230310541055105C8F6882D7E
:10070000805D0F900F900F900F90DF91CF911F9110
:100710000F91FF90EF90DF90CF90BF90AF909F90A0
:100720008F907F906F905F904F900C94FD02CF93CD
:10073000C82FA82FA295AF70B0E0A050BF4F8C91EA
:100740000E94FD02CF70EC2FF0E0E050FF4F80815F
:10075000CF910C94FD02CF93C82F892F0E9497034D
:100760008C2FCF910C9497031F93CF93DF9300D0DE
:10077000CDB7DEB7182F892F6A8379830E9497033C
:10078000812F0E9497037981872F0E9497036A81A6
:10079000862F0F900F90DF91CF911F910C949703AC
:1007A0000895CF93DF9300D0CDB7DEB782E390E01A
:1007B0009A83898389819A819C01215031093A83E6
:1007C0002983892BB9F70F900F90DF91CF9108956E
:1007D000399A389A0E94D103419A0E94D103409AD3
:1007E0000C94D103419A409A0E94D10341980E94EF
:1007F000D10340980C94D103409A0E94D103419AAE
:100800000C94D1031F93CF93DF931F92CDB7DEB724
:1008100018E087FD02C0419801C0419A880F898382
:100820000E94D103409A0E94D10340980E94D103B4
:10083000115089811111EDCF39980E94D103409A4E
:100840000E94D103319903C010925E0103C081E080
:1008500080935E0140980E94D103399A0F90DF91F6
:10086000CF911F910C94D103CF93DF933998D8E0A7
:10087000C0E00E94D103409ACC0F319902C0CE7FD4
:1008800001C0C1600E94D10340980E94D103D150A1
:1008900081F7399A419A0E94D103409A0E94D1036C
:1008A00040980E94D1038C2FDF91CF9108951F9320
:1008B000CF93DF9300D0CDB7DEB7142F10925D0138
:1008C0006A8389830E94F2030E94D10389818E7F0B
:1008D0000E94020480915E016A81811112C0862FFC
:1008E0000E94020480915E01811109C0812F0E9443
:1008F000020480915E01882339F083E003C082E026
:1009000001C081E080935D010E94D1030F900F90A0
:10091000DF91CF911F910C94FC031F93CF93DF9332
:100920001F92CDB7DEB7182F69830E94F2030E9491
:10093000D103812F8E7F0E94020480915E01698124
:1009400081111AC0862F0E94020480915E018111DC
:1009500011C00E94F2030E94D103812F81600E9486
:10096000020480915E01811103C00E94340408C01A
:1009700083E003C082E001C081E080935D0180E0FC
:1009800089830E94D1030E94FC0389810F90DF912B
:10099000CF911F910895CF93DF93CDB7DEB72C97FA
:1009A0000FB6F894DEBF0FBECDBF0E94810082E07B
:1009B0000E948C008E010F5F1F4FC8010E94F6003D
:1009C00083E0F82E98E0E92E81E090E00E94550245
:1009D000809143018823C1F32A81822F8F70823056
:1009E000F9F422952F702062288782E090E00E941F
:1009F00055022B81243039F02E3029F0223039F481
:100A0000F986EA8602C019861A861B8604C081E030
:100A100089871A862B8761E0CE0107960E94A7007E
:100A2000C8010E94F600D0CFDB018F939F930E94F4
:100A30004605BF91AF91A29F800D911DA39F900D80
:100A4000B29F900D11240895A1E21A2EAA1BBB1B80
:100A5000FD010DC0AA1FBB1FEE1FFF1FA217B3078A
:100A6000E407F50720F0A21BB30BE40BF50B661FA0
:100A7000771F881F991F1A9469F760957095809564
:100A800090959B01AC01BD01CF0108950E945105D5
:100A9000A59F900DB49F900DA49F800D911D1124D2
:100AA0000895A29FB001B39FC001A39F01D0B29F40
:0E0AB000700D811D1124911D0895F894FFCF43
:100ABE0030313233343536373839616263646566C6
:100ACE0042434D65737361676553656E642042439F
:100ADE005458427573790D0A0042434D6573736124
:100AEE00676553656E642042435258506F730D0A0A
:020AFE000000F6
:00000001FF
