:1000000019C028C027C026C025C024C023C022C0D4
:1000100021C020C01FC01FC2A7C11CC012C21AC06D
:1000200019C018C092C0F7C01EC114C013C012C0BE
:1000300011C010C011241FBECFEFD2E0DEBFCDBF74
:1000400011E0A0E0B1E001C01D92A731B107E1F7D6
:100050000CD295C2D5CF90E19093010197E0909397
:100060000201809303011092040161E080E091E0BD
:100070001BC05C98109207011092090110920A01AE
:100080001092060110920C0110920B01809308014E
:100090001092C5008FE18093C40088ED8093C10069
:1000A00086E08093C20008950F931F93CF93DF9350
:1000B0001F92CDB7DEB78C01809109018111FCCF71
:1000C000809106018111F8CF81E0F80180832181C0
:1000D0002F7080910801F0E18F9FC0011124282B1F
:1000E000F8012183319681E091E02191820F9F5F99
:1000F0009530D9F7F80185835C9A81E090E06983B7
:100100008AD181E08093090110930E0100930D01C3
:1001100010920A018091C10080628093C1006981C0
:10012000662321F0809109018111FCCF0F90DF91AE
:10013000CF911F910F9108951092060190930C0199
:1001400080930B011092070108951F920F920FB632
:100150000F9211242F933F934F938F939F93AF93BD
:10016000BF93EF93FF934091C60080910B01909154
:100170000C01009709F441C0209106012630E8F5F2
:1001800020910701211139C022E030E030931201A3
:100190002093110120910601FC01E20FF11D408323
:1001A00080910601811102C0413039F5809106012C
:1001B0008530F0F01092120110921101E0910B01C4
:1001C000F0910C01DF01119694E081E02D91820FF6
:1001D0009150E1F7841309C081818F7090910801DB
:1001E000891303C081E0809307011092060105C0C6
:1001F000809106018F5F80930601FF91EF91BF917F
:10020000AF919F918F914F913F912F910F900FBE82
:100210000F901F9018951F920F920FB60F921124F6
:100220008F939F93EF93FF9380910A01863068F438
:10023000E0910D01F0910E01E80FF11D9081909376
:10024000C6008F5F80930A0105C08091C1008F7D39
:100250008093C100FF91EF919F918F910F900FBEFE
:100260000F901F9018951F920F920FB60F921124A6
:100270008F939F9381E090E09093100180930F0102
:100280009F918F910F900FBE0F901F901895359BE7
:100290000EC0349B0EC0339B0EC0329B0EC0319BF0
:1002A0000EC0309B0EC04B990EC087E0089581E0D0
:1002B000089582E0089583E0089584E0089585E03C
:1002C000089586E0089580E0089580FF02C05D985B
:1002D00001C05D9A81FF02C05E9801C05E9A82FFF4
:1002E00002C05F9801C05F9A83FF02C0289801C0D6
:1002F000289A84FF02C05A9A01C05A9885FF02C00A
:10030000299A01C0299886FF02C02A9A08952A983E
:100310000895982F9150973058F4282F30E02150AD
:10032000310981E090E001C0880F2A95EAF701C009
:1003300080E0CBCF82E084BD85BD97E297BD98BDBC
:1003400080936E00109280008093810086E08093FD
:100350006F0086E286BBEAE8F0E0808191818C53F1
:10036000964F9183808308951F920F920FB60F923C
:1003700011248F939F9380918A0090918B008C53CE
:10038000964F90938B0080938A00809115019091F5
:100390001601892B49F08091150190911601019762
:1003A000909316018093150180911301909114018F
:1003B0000196909314018093130180910F01909105
:1003C0001001892B71F080910F019091100101971C
:1003D0009093100180930F01892B19F45C9810926F
:1003E00009018091110190911201892B69F080918E
:1003F00011019091120101979093120180931101C4
:10040000892B11F4109206019F918F910F900FBECE
:100410000F901F901895909316018093150180916D
:10042000150190911601892BD1F7089510921401AE
:100430001092130108952091130130911401C90104
:1004400008951F920F920FB60F9211240F900FBEB6
:100450000F901F9018951F920F920FB60F921124B4
:100460000F900FBE0F901F901895CF93DF93CDB7CD
:10047000DEB727970FB6F894DEBF0FBECDBF8FE073
:1004800084B917B884EF8AB913B88FE386B988E0C6
:1004900089B92B9A80E03DDF4DDF789481E0E9DD7A
:1004A000EE24E394F12CEC0EFD1EC70145DE0EEFA9
:1004B0001FEFB12CAA24A394C12CD12C9F2C02C0D5
:1004C0000150110981E090E0A6DF809107018823A7
:1004D00091F12A81322F3F70313051F522952F70E2
:1004E00020612093010182E090E03F8394DF2B8123
:1004F0003F812130E9F0D8F0263071F48C81E5DEBF
:1005000010920201109203011092040161E080E058
:1005100091E0CADDA12C0CC03093020110920301BE
:100520002093040161E080E091E0BEDD01C0D12CA8
:100530008E2D992D01DED1101DC0A9DEF82E8B1550
:1005400069F089DDBF2C20E04AEFD42E14C0C3949B
:10055000233020F48B2D7FDD3AEFD32EAA2009F42F
:10056000AFCFC801880F892F881F990B919587708D
:10057000D0DEA6CF2C2DDA94C22E49F3EFCFF8941B
:02058000FFCFAB
:00000001FF
