:1000000009C016C015C043C013C012C06EC07DC069
:100010000FC00EC011241FBECFE9CDBF10E0A0E677
:10002000B0E001C01D92A236B107E1F702D0C4C012
:10003000E7CFDF93CF930F92CDB7DEB787E390E0A2
:1000400028E0FC01208371D07894198281E090E04F
:1000500087D089818F5F89838981893008F01982EF
:100060008981873050F488E390E028E330E0F9019B
:1000700020812860FC012083E9CF88E390E028E319
:1000800030E0F9012081277FFC012083DFCF1F9220
:100090000F920FB60F9211242F938F939F93EF938C
:1000A000FF93DF93CF93CDB7DEB782E590E027EDE6
:1000B000FC0120838091600090916100009749F0DD
:1000C000809160009091610001979093610080930E
:1000D0006000CF91DF91FF91EF919F918F912F91D0
:1000E0000F900FBE0F901F9018951F920F920FB692
:1000F0000F921124DF93CF93CDB7DEB7CF91DF916D
:100100000F900FBE0F901F9018951F920F920FB671
:100110000F921124DF93CF93CDB7DEB7CF91DF914C
:100120000F900FBE0F901F901895DF93CF93CDB710
:10013000DEB783E590E024E0FC01208382E590E0D7
:1001400027EDFC01208389E590E022E0FC0120837B
:1001500088E590E02EE0FC012083CF91DF910895A7
:10016000DF93CF9300D0CDB7DEB79A83898389819F
:100170009A81909361008093600013C085E590E0C0
:1001800025E530E0F90120812062FC01208388957B
:1001900085E590E025E530E0F90120812F7DFC0127
:1001A00020838091600090916100009739F7CE5FC5
:0C01B000CDBFCF91DF910895F894FFCFF0
:00000001FF
