:100000000C943E000C945B000C945B000C945B0021
:100010000C945B000C945B000C945B000C945B00F4
:100020000C945B000C945B000C945B000C945B00E4
:100030000C945B000C9446050C94C7040C945B0074
:100040000C943C050C945B000C945B000C945B00DE
:100050000C947A050C9450050C945B000C945B0096
:100060000C945B000C945B000C945B000C945B00A4
:100070000C946D020C94D8020C94000311241FBE42
:10008000CFEFD4E0DEBFCDBF11E0A0E0B1E0EAE405
:10009000F0E102C005900D92AE35B107D9F711E03D
:1000A000AEE5B1E001C01D92A139B107E1F70E94B0
:1000B00036010C9423080C940000FF920F931F93B9
:1000C000CF93DF9380917F01893008F499C085E652
:1000D00091E069E00E94C50500916501033519F0C2
:1000E000033709F07AC0C6E6D1E06FE05EE04DE08C
:1000F0003CE02BE09AE08881863451F1873470F43B
:10010000833401F1843428F48134C1F0823411F550
:1001100017C08434C9F08534E9F418C0833691F0EF
:10012000843628F4813651F08236A1F409C0853630
:1001300069F0853648F0863669F40AC0988310C0A5
:1001400028830EC038830CC048830AC0588308C077
:10015000688306C080538A3010F4888301C01882F7
:10016000219681E0CE36D80731F6809166018295DE
:10017000807FF0906801F29420EFF2229091690163
:10018000F92A90916A0120916C0130E0192F1295A3
:10019000107F00E050916B0140E0042B152B409143
:1001A0006D0150E0042B152B94E0220F331F9A951C
:1001B000E1F7022B132B90916701892B6F2DA8017A
:1001C0000E940007CE01099769E00E94C505FF2043
:1001D000B9F4802F0E94B80613C085E691E069E06B
:1001E0000E94C50580E091E00E94DD05602F70E06F
:1001F00080E090E00E94F10582E091E00E94DD0540
:10020000DF91CF911F910F91FF900895039B02C042
:1002100080E001C082E0029B8F5F0895019B02C0D5
:1002200080E001C082E0009B8F5F089580E181B98A
:100230008FE080B982B914B817B880E68AB913B8CC
:1002400016B819B815B815B815B85D9A5E9808951E
:100250000E9416010E94AC040E942B030E94A50577
:1002600078940E9452070E9452070895AF92BF925D
:10027000CF92DF92EF92FF920F931F93DF93CF9372
:10028000CDB7DEB72D970FB6F894DEBF0FBECDBF4A
:100290000E94280186E091E00E94DD0585E691E05C
:1002A00069E00E94C5050E940E01082F0B5F802F98
:1002B0000E94F80167E0E62EF12CEC0EFD1EC7014E
:1002C0000E945F02C02EDD248E010F5F1F4FBE2CE7
:1002D000EF2C53E0F52E81E090E00E9426050E946D
:1002E0005D0080916F018823B1F38885282F30E06D
:1002F0002F7030702C153D0571F7960144E0220FE8
:10030000331F4A95E1F782958F70822B8A8382E0B2
:1003100090E00E9426058985883009F44CC0893018
:1003200030F4823051F0843009F055C00CC08C306C
:10033000D1F08D3009F04FC02BC0FB820E94060126
:100340008C831D824CC01B821C821D82C80161E00F
:100350000E941302AA848B2D9E2D0E945F028A2D7B
:100360000E94B806B8CF1B821C821D82C80161E0C2
:100370000E941302AA846B858B2D9E2D6D870E948F
:100380005F028A2D90E06D8570E00E94EA06A3CF9F
:100390001B821C821D82C80161E00E941302AA8494
:1003A0006B858B2D9E2D6D870E945F028A2D6D853A
:1003B0000E94F40690CF1B821C821D82C80161E05E
:1003C0000E941302AA848B2D9E2D0E945F028A2D0B
:1003D0000E94C50780CF91E09B831C828D83C8015A
:1003E00061E00E9413028B2D9E2D0E945F0273CF4D
:1003F000149810926F011092710110927201109274
:100400006E0110927401109273018093700110922A
:10041000CD008FE18093CC0088E58093C90086E011
:100420008093CA0008951F93CF93DF93EC01162F9A
:1004300080917101882321F083E191E00E94DD0524
:1004400080916E01882321F08CE291E00E94DD050D
:10045000809171018823E1F780916E018823C1F7B3
:10046000FE0181E0819399819F7080917001829556
:10047000807F892B898394E081E02191820F9150C4
:10048000E1F78D83149A81E090E00E94260581E0D7
:1004900080937101D0937601C0937501109272011F
:1004A0008091C90080628093C900112321F080915E
:1004B00071018823E1F7DF91CF911F910895109288
:1004C0006E01909374018093730110926F01E9ECB7
:1004D000F0E080818068808308951F920F920FB6AC
:1004E0000F9211242F933F934F938F939F93AF932A
:1004F000BF93EF93FF934091CE0080917301909151
:100500007401009709F446C020916E01263008F06E
:1005100041C020916F012223E9F522E030E03093C1
:100520007A012093790120916E01820F911DFC01C7
:10053000408380916E01882311F4413059F58091F8
:100540006E01853010F110927A0110927901E091DC
:100550007301F0917401DF01119694E081E02D9117
:10056000820F9150E1F7841769F4818190E08F70D8
:1005700090702091700130E08217930719F481E0A8
:1005800080936F0110926E0105C080916E018F5FA4
:1005900080936E01FF91EF91BF91AF919F918F91E9
:1005A0004F913F912F910F900FBE0F901F90189574
:1005B0001F920F920FB60F9211248F939F93EF9378
:1005C000FF9380917201863068F4E0917501F0919B
:1005D0007601E80FF11D90819093CE008F5F80939C
:1005E000720105C08091C9008F7D8093C900FF9181
:1005F000EF919F918F910F900FBE0F901F901895C4
:100600001F920F920FB60F9211248F939F9381E048
:1006100090E090937801809377019F918F910F9054
:100620000FBE0F901F901895DF93CF9300D0CDB7DA
:10063000DEB782E390E09A83898389819A819C0165
:10064000215030403A8329830097B9F70F900F90DB
:10065000CF91DF910895389A399A3A9A3B9A3C9A09
:100660003D9A3E9A3F9A209A219A0E941403419AF9
:10067000439A459A479A299A0E941403409A429AAB
:10068000449A469A289A0E94140308958330F1F000
:10069000843028F4813041F08230B1F50EC08430CE
:1006A000F1F0853089F526C0419A409A0E941403E2
:1006B00041980E94140340981AC0439A429A0E949B
:1006C000140343980E941403429811C0459A449A17
:1006D0000E94140345980E941403449808C0479A46
:1006E000469A0E94140347980E94140346980E9459
:1006F00014030895299A289A0E94140329980E94A5
:10070000140328980E94140308958330D1F0843094
:1007100028F4813041F0823041F50CC08430C1F0C2
:10072000853019F51CC00E941403409A0E941403DE
:10073000419A08950E941403429A0E941403439A16
:1007400008950E941403449A0E941403459A089540
:100750000E941403469A0E941403479A08950E9427
:100760001403289A0E941403299A0895833081F073
:10077000843028F4813041F0823079F407C084302D
:1007800049F0853051F408C0409A0895429A08957E
:10079000449A0895469A0895289A0895833081F0DE
:1007A000843028F4813041F0823079F407C08430FD
:1007B00049F0853051F408C0409808954298089552
:1007C000449808954698089528980895833081F0B4
:1007D000843028F4813041F0823079F407C08430CD
:1007E00049F0853051F408C0419A0895439A08951C
:1007F000459A0895479A0895299A0895833081F07B
:10080000843028F4813041F0823079F407C084309C
:1008100049F0853051F408C04198089543980895EF
:10082000459808954798089529980895833081F050
:10083000843028F4813041F0823079F407C084306C
:1008400049F0853051F408C0399A08953B9A0895CB
:100850003D9A08953F9A0895219A0895833081F032
:10086000843028F4813041F0823079F407C084303C
:1008700049F0853051F408C0399808953B9808959F
:100880003D9808953F980895219808958330A1F0E8
:10089000843028F4813041F08230E1F409C08430A2
:1008A00079F08530B9F411C081E0319914C010C0DD
:1008B00081E0339910C00CC081E035990CC008C0AC
:1008C00086B1881F8827881F089581E0199903C081
:1008D00080E0089581E00895FF920F931F93182FF1
:1008E000F62E08E00E941403F7FC04C0812F0E943A
:1008F000FE0303C0812F0E94E6030E941403812F90
:100900000E94B6030E941403812F0E94CE030E940E
:100910001403015011F0FF0CE5CF812F0E942E042B
:100920000E941403812F0E94B6030E941403812F9A
:100930000E944604082F0E941403812F0E94CE03B8
:100940000E941403812F0E9416040E941403802F1A
:100950001F910F91FF90089582E284BD82E085BDD2
:1009600097E297BD98BD80936E00109280008093AF
:10097000810086E080936F0086E286BBEAE8F0E0C3
:10098000808191818C53964F9183808308951F922B
:100990000F920FB60F9211248F939F9380918A002C
:1009A00090918B008854944F90938B0080938A0091
:1009B00080917D0190917E01009749F080917D01A9
:1009C00090917E01019790937E0180937D018091AB
:1009D0007B0190917C01019690937C0180937B0137
:1009E0008091770190917801009791F08091770143
:1009F000909178010197909378018093770180918D
:100A0000770190917801009719F414981092710170
:100A10008091790190917A01009789F08091790114
:100A200090917A01019790937A0180937901809156
:100A3000790190917A01009711F410926E019F91C3
:100A40008F910F900FBE0F901F90189590937E017D
:100A500080937D0180917D0190917E010097D1F777
:100A6000089510927C0110927B01089520917B01E2
:100A700030917C01C90108951F920F920FB60F9219
:100A800011240F900FBE0F901F9018951F920F9278
:100A90000FB60F9211240F900FBE0F901F90189554
:100AA0001F920F920FB60F9211248F93EF93FF9323
:100AB00080918501882389F0809185018150809300
:100AC0008501E0918601F091870181918093C600B4
:100AD000F0938701E093860105C08091C1008F7D6E
:100AE0008093C100FF91EF918F910F900FBE0F90F7
:100AF0001F9018951F920F920FB60F9211248F938B
:100B00009F93EF93FF939091C60080918401882377
:100B100099F080918401815080938401E09181015A
:100B2000F09182019193F0938201E0938101809191
:100B30007F018F5F80937F01FF91EF919F918F9154
:100B40000F900FBE0F901F9018951092C5008FE167
:100B50008093C40088E98093C10086E08093C2003E
:100B600010928401109285010895609385019093FD
:100B70008701809386018091C10080628093C100CB
:100B8000809185018823E1F70895909382018093F5
:100B900081016093840110927F010895DF93CF93C8
:100BA0000F92CDB7DEB78983CE01019661E00E9436
:100BB000B5050F90CF91DF910895EF92FF92CF93FB
:100BC000DF93E82EE7017E01F92EE70102C00E94C3
:100BD000CE0589918823D9F7DF91CF91FF90EF90CF
:100BE00008954F925F926F927F928F929F92AF92F1
:100BF000BF92CF92DF92EF92FF920F931F93DF93FA
:100C0000CF9300D000D0CDB7DEB75B016C0139E0E7
:100C1000432E512CE12C2AECF22E2AE9022F2BE351
:100C2000122F9AE0692E712C812C912CAE14BF04E6
:100C3000C006D10678F4C801B701A40193010E944F
:100C4000010879018A0108944108510841145104AE
:100C500069F736C082E0E816F1040105110580F15C
:100C60008AE0682E712C812C912CC601B501A80157
:100C700097010E940108822F805D29833A834B836C
:100C80005C830E94CE052981622F3A81732F4B81AC
:100C9000842F5C81952FA80197010E94E207A61A74
:100CA000B70AC80AD90AC801B701A40193010E9472
:100CB000010879018A012230310541055105A8F664
:100CC0008A2D805D0E94CE050F900F900F900F909F
:100CD000CF91DF911F910F91FF90EF90DF90CF9018
:100CE000BF90AF909F908F907F906F905F904F904C
:100CF00008951F93CF93DF93182F82958F70C4E4CC
:100D0000D1E0FE01E80FF11D80810E94CE051F7029
:100D1000C10FD11D88810E94CE05DF91CF911F9117
:100D200008951F93182F892F0E947906812F0E9402
:100D300079061F9108951F93DF93CF9300D0CDB70D
:100D4000DEB7182F892F6A8379830E947906812F55
:100D50000E9479067981872F0E9479066A81862F01
:100D60000E9479060F900F90CF91DF911F91089507
:100D7000CF92DF92FF920F931F93DF93CF930F9247
:100D8000CDB7DEB7F82E04E511E08FE5C82E81E07F
:100D9000D82E91E0F80181918F016F2D8F1508F405
:100DA000682FF60181916F01861710F4681B01C04E
:100DB00060E0892F99830E942E0799819F5F96306A
:100DC00049F70F90CF91DF911F910F91FF90DF9026
:100DD000CF900895982F9150953028F4E82FF0E0A7
:100DE000E25AFE4F6083089567FD09C0982F915025
:100DF000953028F4E82FF0E0ED5AFE4F6083089517
:100E0000FF920F931F93DF93CF930F92CDB7DEB76F
:100E1000182F062FF42E59830E9446030E941403B4
:100E2000812F64E30E946C045981882381F45170FE
:100E3000602F660F652B812F0E946C04812F6F2D10
:100E40000E946C040E941403812F0E9485030F905E
:100E5000CF91DF911F910F91FF9008950F931F93F2
:100E6000CF93DF93082F162F1F7762E0412F50E0BA
:100E70000E940007C12FD0E0D160802F63E0AE0157
:100E80000E940007802F62E0412F50E00E9400077F
:100E9000802F63E0AE010E940007DF91CF911F9188
:100EA0000F9108951F9311E0812F6FE040E050E013
:100EB0000E940007812F6FE040E050E00E94000791
:100EC000812F6FE040E050E00E940007812F6FE02B
:100ED00040E050E00E940007812F64E040E050E0D5
:100EE0000E940007812F65E040E050E00E9400076B
:100EF000812F67E042E050E00E940007812F6AE006
:100F00004FEF50E00E940007812F6BE04FEF51E060
:100F10000E940007812F69E140EC51E00E94000728
:100F2000812F6AE140EE51E00E940007812F62E2CA
:100F300040E051E00E940007812F65E240E051E06F
:100F40000E940007812F6FE24CE050E00E940007F2
:100F5000812F62E040E050E00E940007812F63E0B3
:100F600040E051E00E9400071F5F163009F09CCF5F
:100F70001F91089581E063E049E551E00E94000778
:100F800084EF91E00E942605F5CF1F93CF93DF9366
:100F9000823048F4E82FF0E0EE0FFF1FE75AFE4FD3
:100FA000C081D18102C0C2E0D0E011E0812F67E0B2
:100FB000AE010E9400071F5F1630C1F7DF91CF918D
:100FC0001F910895629FD001739FF001829FE00DF1
:100FD000F11D649FE00DF11D929FF00D839FF00DB8
:100FE000749FF00D659FF00D9927729FB00DE11D64
:100FF000F91F639FB00DE11DF91FBD01CF01112441
:101000000895A1E21A2EAA1BBB1BFD010DC0AA1F49
:10101000BB1FEE1FFF1FA217B307E407F50720F061
:10102000A21BB30BE40BF50B661F771F881F991FDC
:101030001A9469F760957095809590959B01AC0125
:0A104000BD01CF010895F894FFCF21
:10104A003F003F0D0A000D0A506F776572207570D8
:10105A000D0A0042434D65737361676553656E649B
:10106A002042435458427573790D0A0042434D6534
:10107A00737361676553656E642042435258506FBB
:10108A00730D0A00303132333435363738396162FC
:0E109A00636465667F7F7F7F7F0A000200002F
:00000001FF
