:100000000C943E000C945B000C945B000C945B0021
:100010000C945B000C945B000C945B000C945B00F4
:100020000C945B000C945B000C945B000C945B00E4
:100030000C945B000C94C3040C9428040C945B0097
:100040000C9495040C945B000C945B000C945B0086
:100050000C94F7040C94CD040C945B000C945B009E
:100060000C945B000C945B000C945B000C945B00A4
:100070000C94E4010C9449020C94710211241FBEEB
:10008000CFEFD4E0DEBFCDBF11E0A0E0B1E0EAEEFB
:10009000F0E102C005900D92AA35B107D9F711E041
:1000A000AAE5B1E001C01D92AD39B107E1F70E94A8
:1000B00043070C9473080C9400001F93CF93DF93B5
:1000C00080918B01893008F497C069E08BE691E05C
:1000D0000E944205C0916B01C33519F0C33709F086
:1000E00075C0ECE6F1E09FE02EE03DE04CE05BE027
:1000F0006AE08081863431F168F48334E9F028F4D1
:100100008134B1F0823401F515C08434B9F08534FE
:10011000D9F416C0833681F028F4813649F082364E
:1001200099F408C0853661F048F0863669F40AC053
:10013000608310C050830EC040830CC030830AC05F
:10014000208308C0908306C080538A3010F48083D7
:1001500001C01082319681E0E437F80751F68091B2
:100160006C018295807F10916E011295107F9091A5
:100170006F01192B2091700190917201D22FD295AD
:10018000D07F20E0C22F3091710120E0C22BD32B11
:1001900020917301C22B40E1949F90011124C22B46
:1001A000D32B90916D01AE01612F892B0E945F06C8
:1001B00069E08BE691E00E94420511111DC060E0EC
:1001C0008C2FDF91CF911F910C941E0669E08BE676
:1001D00091E00E94420585E191E00E945A056C2F52
:1001E00070E080E090E00E94660587E191E0DF9199
:1001F000CF911F910C945A05DF91CF911F910895D3
:10020000039B02C080E001C082E0029B8F5F0895E3
:10021000019B02C080E001C082E0009B8F5F0895D7
:1002200080E181B98FE080B982B982E084B917B8E2
:1002300080E68AB913B816B819B815B815B815B844
:100240005D9A5E98219A299A089593E390936401A8
:100250008FEF8093750190936501809376011092E2
:100260006601109260011092670110926101109274
:100270006801109262011092690110926301089561
:100280000E9410010E940E040E949C020E942205FE
:1002900078940E94B9060E94B9060C94250180FF4B
:1002A00003C09091750102C0909164019093820106
:1002B00081FF03C08091760102C080916501809327
:1002C0008701089514981092780110927A01109283
:1002D0007B011092770110927D0110927C01809336
:1002E00079011092CD008FE18093CC0088E5809356
:1002F000C90086E08093CA0008951F93CF93DF93CF
:10030000EC01162F80917A01882321F088E291E098
:100310000E945A0580917701882321F081E491E0C1
:100320000E945A0580917A018111FCCF809177015A
:100330008111F8CF81E0888329812F708091790124
:1003400030E1839FC0011124282B2983FE013196BF
:1003500094E081E02191820F9150E1F78D83149A0E
:1003600081E090E00E947F0481E080937A01D09345
:100370007F01C0937E0110927B018091C9008F7E26
:100380008093C9008091C90080628093C9001123C5
:1003900021F080917A018111FCCF8091C9008061A8
:1003A0008093C900DF91CF911F910895109277013A
:1003B00090937D0180937C0110927801E9ECF0E04C
:1003C00080818068808308951F920F920FB60F92EC
:1003D00011242F933F934F938F939F93AF93BF938A
:1003E000EF93FF934091CE0080917C0190917D012D
:1003F000009709F440C0209177012630E0F5209164
:100400007801211138C022E030E03093840120933C
:10041000830120917701FC01E20FF11D408380915F
:100420007701811102C0413031F58091770185302B
:10043000E8F01092840110928301E0917C01F09128
:100440007D01DF01119694E081E02D91820F9150A2
:10045000E1F7841308C081818F7090E005971CF04C
:1004600081E0809378011092770105C08091770137
:100470008F5F80937701FF91EF91BF91AF919F9133
:100480008F914F913F912F910F900FBE0F901F9022
:1004900018951F920F920FB60F9211248F939F936E
:1004A000EF93FF9380917B01863068F4E0917E01A9
:1004B000F0917F01E80FF11D90819093CE008F5F46
:1004C00080937B0105C08091C9008F7D8093C90016
:1004D000FF91EF919F918F910F900FBE0F901F9002
:1004E00018951F920F920FB60F9211248F939F931E
:1004F00081E090E090938101809380019F918F91A2
:100500000F900FBE0F901F901895CF93DF9300D0E0
:10051000CDB7DEB781E090E09A83898389819A81A3
:100520009C01215031093A832983892BB9F70F9017
:100530000F90DF91CF910895389A399A3A9A3B9A61
:100540003C9A3D9A3E9A3F9A209A219A0E948502AF
:10055000419A439A459A479A299A0E948502409A5D
:10056000429A449A469A289A0C9485028330E9F07C
:1005700028F4813041F08230A1F50EC08430F1F0D2
:10058000853079F524C0419A409A0E9485024198AD
:100590000E948502409823C0439A429A0E94850295
:1005A00043980E94850242981AC0459A449A0E9434
:1005B000850245980E948502449811C0479A469A40
:1005C0000E94850247980E948502469808C0299A91
:1005D000289A0E94850229980E94850228980C94E6
:1005E000850208958330C9F028F4813041F08230CB
:1005F00041F50CC08430C1F0853019F51CC00E9453
:100600008502409A0E948502419A08950E948502BF
:10061000429A0E948502439A08950E948502449A54
:100620000E948502459A08950E948502469A0E947A
:100630008502479A08950E948502289A0E948502A1
:10064000299A0895833079F028F4813041F082307E
:1006500079F407C0843049F0853051F408C0409ADD
:100660000895429A0895449A0895469A0895289ABA
:100670000895833079F028F4813041F0823079F4A4
:1006800007C0843049F0853051F408C0409808957F
:100690004298089544980895469808952898089592
:1006A000833079F028F4813041F0823079F407C04A
:1006B000843049F0853051F408C0419A0895439A36
:1006C0000895459A0895479A0895299A0895833080
:1006D00079F028F4813041F0823079F407C0843019
:1006E00049F0853051F408C0419808954398089521
:1006F000459808954798089529980895833079F08A
:1007000028F4813041F0823079F407C0843049F018
:10071000853051F408C0399A08953B9A08953D9A5E
:1007200008953F9A0895219A0895833079F028F426
:10073000813041F0823079F407C0843049F085304F
:1007400051F408C0399808953B9808953D9808954C
:100750003F98089521980895833091F028F48130CE
:1007600041F08230D9F407C0843079F08530B1F49B
:1007700011C086B110C086B183FB882780F9089527
:1007800086B185FB882780F9089586B1881F882760
:10079000881F089583B186958170089581E008953A
:1007A0001F93CF93DF93C82F162FD8E00E948502A6
:1007B0008C2F17FD03C00E94670302C00E945003E4
:1007C000110F0E9485028C2F0E9422030E94850235
:1007D0008C2F0E9439030E948502D15039F78C2F4B
:1007E0000E9495030E9485028C2F0E9422030E9482
:1007F00085028C2F0E94AC03D82F0E9485028C2F7B
:100800000E9439030E9485028C2F0E947E030E9461
:1008100085028D2FDF91CF911F91089582E084BDD5
:1008200085BD97E297BD98BD80936E0010928000C1
:100830008093810086E080936F0086E286BBEAE8C1
:10084000F0E0808191818C53964F9183808308954D
:100850001F920F920FB60F9211248F939F93809146
:100860008A0090918B008C53964F90938B008093CD
:100870008A008091890190918A01892B49F08091A9
:10088000890190918A01019790938A01809389014F
:1008900080918501909186010196909386018093C5
:1008A00085018091800190918101892B71F0809167
:1008B0008001909181010197909381018093800143
:1008C000892B19F4149810927A01809183019091E8
:1008D0008401892B69F080918301909184010197B3
:1008E0009093840180938301892B11F410927701F6
:1008F0009F918F910F900FBE0F901F90189590931E
:100900008A01809389018091890190918A01892BC4
:10091000D1F70895109286011092850108952091D3
:10092000850130918601C90108951F920F920FB67B
:100930000F9211248F939F93809188018F5F8093F2
:10094000880180918201882341F0909182018091F9
:100950008801981710F02B9A01C02B98809188017C
:1009600090918701992339F09091870181589817C8
:1009700010F02A9A01C02A989F918F910F900FBE74
:100980000F901F9018951F920F920FB60F9211247F
:100990000F900FBE0F901F9018951F920F920FB6D9
:1009A0000F9211248F93EF93FF93809191018823ED
:1009B00089F080919101815080939101E0919201A1
:1009C000F091930181918093C600F0939301E0939D
:1009D000920105C08091C1008F7D8093C100FF917D
:1009E000EF918F910F900FBE0F901F9018951F924F
:1009F0000F920FB60F9211248F939F93EF93FF9353
:100A00009091C60080919001882399F08091900187
:100A1000815080939001E0918D01F0918E0191932E
:100A2000F0938E01E0938D0180918B018F5F809315
:100A30008B01FF91EF919F918F910F900FBE0F90BF
:100A40001F9018951092C5008FE18093C40088E92B
:100A50008093C10086E08093C200109290011092B2
:100A60009101089560939101909393018093920175
:100A70008091C10080628093C100809191018111B9
:100A8000FCCF089590938E0180938D016093900127
:100A900010928B010895CF93DF931F92CDB7DEB7ED
:100AA000898361E0CE0101960E9432050F90DF91AB
:100AB000CF910895CF93DF93EC0102C00E944B05C4
:100AC00089918111FBCFDF91CF9108954F925F9271
:100AD0006F927F928F929F92AF92BF92CF92DF924E
:100AE000EF92FF920F931F93CF93DF9300D000D02C
:100AF000CDB7DEB74B015C0109E010E0C12C9AECE8
:100B0000D92E9AE9E92E9BE3F92E2AE0422E512CA8
:100B1000612C712C8C149D04AE04BF0460F4C701D9
:100B2000B601A30192010E943A0869017A010150BD
:100B3000110981F732C082E0C816D104E104F10442
:100B400060F18AE0482E512C612C712CC501B40152
:100B5000A70196010E943A08822F805D29833A837B
:100B60004B835C830E944B0529813A814B815C81D8
:100B7000C701B6010E942A08861A970AA80AB90A6C
:100B8000C701B601A30192010E943A0869017A01E6
:100B90002230310541055105C8F6882D805D0F9042
:100BA0000F900F900F90DF91CF911F910F91FF90B9
:100BB000EF90DF90CF90BF90AF909F908F907F90FD
:100BC0006F905F904F900C944B05CF93C82FA82F38
:100BD000A295AF70B0E0AB5FBE4F8C910E944B0509
:100BE000CF70EC2FF0E0EB5FFE4F8081CF910C9443
:100BF0004B05CF93C82F892F0E94E5058C2FCF91ED
:100C00000C94E5051F93CF93DF9300D0CDB7DEB7EB
:100C1000182F892F6A8379830E94E505812F0E940E
:100C2000E5057981872F0E94E5056A81862F0F905F
:100C30000F90DF91CF911F910C94E505CF93DF9337
:100C4000D82F862F6623E9F06D2FDF91CF910C947A
:100C500096062C2F30E0F901E150FF4F9081D91713
:100C600008F49D2FF901E65AFE4F8081891718F488
:100C7000692F681B01C060E08C2F0E949606CF5F31
:100C800001C0C1E0809174018C1718F7DF91CF91FA
:100C90000895982F9150953028F4E82FF0E0E65A07
:100CA000FE4F6083089567FD09C0982F91509530DD
:100CB00028F4E82FF0E0E150FF4F60830895FF92A1
:100CC0000F931F93CF93DF931F92CDB7DEB7082FFB
:100CD000162FF42E59830E94B6020E94850264E307
:100CE000802F0E94D0035981811119C0252F30E037
:100CF00021703327612F660F622B802F0E94D00353
:100D00006F2D802F0E94D0030E948502802F0F90AC
:100D1000DF91CF911F910F91FF900C94F2020F90F1
:100D2000DF91CF911F910F91FF9008950F931F9323
:100D3000CF93DF93082F162F1F77412F50E062E0EB
:100D40000E945F06C12FD0E0D160AE0163E0802F2A
:100D50000E945F06412F50E062E0802F0E945F06F4
:100D6000AE0163E0802FDF91CF911F910F910C9422
:100D70005F06CF93C1E040E050E06FE08C2F0E940F
:100D80005F0640E050E06FE08C2F0E945F0640E07D
:100D900050E06FE08C2F0E945F0640E050E06FE073
:100DA0008C2F0E945F0640E050E064E08C2F0E9490
:100DB0005F0640E050E065E08C2F0E945F0642E055
:100DC00050E067E08C2F0E945F064FEF50E06AE032
:100DD0008C2F0E945F064FEF51E06BE08C2F0E943A
:100DE0005F0640EC51E069E18C2F0E945F0640EE07
:100DF00051E06AE18C2F0E945F0640E051E062E220
:100E00008C2F0E945F0640E051E065E28C2F0E942B
:100E10005F064CE050E06FE28C2F0E945F0640E0DE
:100E200050E062E08C2F0E945F0640E051E063E0FA
:100E30008C2F0E945F06CF5FC63009F09CCFCF9108
:100E4000089549E551E063E081E00E945F0684EF88
:100E500091E00E947F04F5CF1F93CF93DF93882307
:100E600019F0C2E0D0E002C0CAE0D0E011E0AE016B
:100E700067E0812F0E945F061F5F1630C1F7DF9188
:100E8000CF911F910895CF93DF93CDB7DEB72C9705
:100E90000FB6F894DEBF0FBECDBF0E9440018BE1BC
:100EA00091E00E945A0569E08BE691E00E944205BC
:100EB0000E940801082F0B5F802F0E946201CE0163
:100EC00001960E94D6010E940001882311F081E062
:100ED00001C085E080937401239A2B9A229A2A9A62
:100EE000219A299A83E00E944F0110E043E0F42EFA
:100EF0000E948A0481E090E00E947F040E945D00CD
:100F0000809178018823A1F32A81822F8F7090E04D
:100F10008017910709F099C0C80134E0880F991F24
:100F20003A95E1F7922F92959F70982B988782E0DF
:100F300090E00E947F048B818630E1F040F48430A1
:100F400029F108F056C0823009F076C00DC08C300F
:100F500051F120F4883009F06FC03FC08D3081F12D
:100F60008F3009F069C059C0F9860E9400018A8754
:100F70001B8666C019861A861B8661E0CE0107961D
:100F80000E947D018C810E944F015FC019861A86E4
:100F90001B8661E0CE0107960E947D016D818C81E8
:100FA0000E941E0652C019861A861B8661E0CE0179
:100FB00007960E947D016D818C810E94490645C083
:100FC00019861A861B8661E0CE0107960E947D0174
:100FD0006D818C810E94530638C019861A861B8643
:100FE00061E0CE0107960E947D018C810E942C0752
:100FF0002CC019861A861B8661E0CE0107960E94D6
:101000007D019C818D81913019F4809382011DC0F6
:101010009230D9F48093870118C019861A861B86EE
:1010200061E0CE0107960E947D01CE0101960E94EB
:10103000D6010C94000009C091E099871A868B872D
:1010400061E0CE0107960E947D01CE0101960E94CB
:10105000D6014ECFDB018F939F930E945C08BF9116
:10106000AF91A29F800D911DA39F900DB29F900DF7
:1010700011240895A1E21A2EAA1BBB1BFD010DC06D
:10108000AA1FBB1FEE1FFF1FA217B307E407F50738
:1010900020F0A21BB30BE40BF50B661F771F881F14
:1010A000991F1A9469F760957095809590959B01AA
:1010B000AC01BD01CF0108950E946708A59F900D66
:1010C000B49F900DA49F800D911D11240895A29F9F
:1010D000B001B39FC001A39F01D0B29F700D811DCD
:0A10E0001124911D0895F894FFCF2C
:1010EA007F7F7F7F7F30313233343536373839610D
:1010FA0062636465663F003F0D0A000D0A506F7710
:10110A0065722075700D0A0042434D6573736167FD
:10111A006553656E642042435458427573790D0ACB
:10112A000042434D65737361676553656E6420427F
:0A113A00435258506F730D0A000075
:00000001FF
