:1000000019C033C032C031C030C02FC02EC02DC087
:100010002CC02BC02AC0C1C2DFC127C04AC225C024
:1000200024C023C0A2C007C12EC11FC01EC01DC056
:100030001CC01BC011241FBECFEFD2E0DEBFCDBF5E
:1000400011E0A0E0B1E0EAE1F6E002C005900D9217
:10005000A830B107D9F711E0A8E0B1E001C01D92C6
:10006000AE32B107E1F7A3D2D6C2CACF90E19093E6
:10007000090197E090930A0180930B0110920C0103
:1000800061E088E091E01BC05C9810920F01109233
:1000900011011092120110920E011092140110928F
:1000A0001301809310011092C5008FE18093C4006A
:1000B00088E58093C10086E08093C20008950F9385
:1000C0001F93CF93DF931F92CDB7DEB78C01809142
:1000D00011018111FCCF80910E018111F8CF81E0D7
:1000E000F801808321812F7080911001F0E18F9FB2
:1000F000C0011124282BF8012183319681E091E081
:100100002191820F9F5F9530D9F7F80185835C9A22
:1001100081E090E06983B7D181E080931101109371
:10012000160100931501109212018091C1008062A6
:100130008093C1006981662321F0809111018111B2
:10014000FCCF0F90DF91CF911F910F9108951092E6
:100150000E01909314018093130110920F01E1ECB2
:10016000F0E080818068808308951F920F920FB61F
:100170000F9211242F933F934F938F939F93AF939D
:10018000BF93EF93FF934091C6008091130190912C
:100190001401009709F441C020910E012630E8F5C2
:1001A00020910F01211139C022E030E0309323016A
:1001B0002093220120910E01FC01E20FF11D4083EA
:1001C00080910E01811102C0413039F580910E01FC
:1001D0008530F0F01092230110922201E09113017A
:1001E000F0911401DF01119694E081E02D91820FCE
:1001F0009150E1F7841309C081818F7090911001B3
:10020000891303C081E080930F0110920E0105C095
:1002100080910E018F5F80930E01FF91EF91BF914E
:10022000AF919F918F914F913F912F910F900FBE62
:100230000F901F9018951F920F920FB60F921124D6
:100240008F939F93EF93FF9380911201863068F410
:10025000E0911501F0911601E80FF11D9081909346
:10026000C6008F5F8093120105C08091C1008F7D11
:100270008093C100FF91EF919F918F910F900FBEDE
:100280000F901F9018951F920F920FB60F92112486
:100290008F939F9381E090E09093200180931F01C2
:1002A0009F918F910F900FBE0F901F901895359BC7
:1002B0000EC0349B0EC0339B0EC0329B0EC0319BD0
:1002C0000EC0309B0EC04B990EC087E0089581E0B0
:1002D000089582E0089583E0089584E0089585E01C
:1002E000089586E0089580E00895E7E1F1E0A0E058
:1002F000B1E08FEF11928D9391E0EE31F907D1F7D4
:10030000089580FF03C09091000102C090911701F1
:100310009093210181FF03C09091010102C090914F
:1003200018019093280182FF03C09091020102C03E
:10033000909119019093240183FF03C090910301D0
:1003400002C090911A0190932B0184FF03C09091F9
:10035000040102C090911B0190932A0185FF03C004
:100360009091050102C090911C0190931E0186FF9F
:1003700003C08091060102C080911D018093270176
:100380000895982F9150973058F4282F30E021503D
:10039000310981E090E001C0880F2A95EAF701C099
:1003A00080E0AFCF82E084BD85BD97E297BD98BD68
:1003B00080936E00109280008093810086E080938D
:1003C0006F0086E286BBEAE8F0E0808191818C5381
:1003D000964F9183808308951F920F920FB60F92CC
:1003E00011248F939F9380918A0090918B008C535E
:1003F000964F90938B0080938A0080912C0190916E
:100400002D01892B49F080912C0190912D010197AC
:1004100090932D0180932C018091250190912601CC
:100420000196909326018093250180911F01909160
:100430002001892B71F080911F019091200101977B
:100440009093200180931F01892B19F45C981092DE
:1004500011018091220190912301892B69F08091F3
:10046000220190912301019790932301809322010F
:10047000892B11F410920E019F918F910F900FBE56
:100480000F901F90189590932D0180932C018091CF
:100490002C0190912D01892BD1F7089510922601FE
:1004A0001092250108952091250130912601C9015E
:1004B00008951F920F920FB60F9211248F939F935E
:1004C000809129018F5F80932901809121018823E8
:1004D00041F09091210180912901981710F05D98C9
:1004E00001C05D9A8091290190912801992339F0EA
:1004F000909128018C5D981710F05E9801C05E9A6B
:100500008091290190912401992339F0909124013F
:10051000885B981710F05F9801C05F9A809129015D
:1005200090912B01992339F090912B0184599817C0
:1005300010F0289801C0289A8091290190912A01F1
:10054000992339F090912A018057981710F05A9A00
:1005500001C05A988091290190911E01992339F088
:1005600090911E018C54981710F0299A01C0299877
:100570008091290190912701992339F090912701C9
:100580008852981710F02A9A01C02A989F918F914B
:100590000F900FBE0F901F9018951F920F920FB6DD
:1005A0000F9211240F900FBE0F901F901895CF93AC
:1005B000DF9300D000D000D0CDB7DEB78FE084B994
:1005C00017B884EF8AB913B88FE386B988E089B980
:1005D0002B9A8BDE80E0D5DEE5DE789481E054DD79
:1005E000CE010196B4DD8FEF8CDE81E090E04BDF31
:1005F0005EDE8823C1F3282F30E02150310981E0ED
:1006000090E001C0880F2A95EAF780957ADE84EFA2
:0A06100091E039DFEACFF894FFCF44
:08061A000707070707070700A7
:00000001FF
