:10E000000C943E700C945B700C945B700C945B7081
:10E010000C945B700C945B700C945B700C945B7054
:10E020000C945B700C945B700C945B700C945B7044
:10E030000C945B700C943F740C945B700C945B704C
:10E040000C9435740C945B700C945B700C945B7046
:10E050000C945B700C945B700C945B700C945B7014
:10E060000C945B700C945B700C945B700C945B7004
:10E070000C945B700C945B700C945B7011241FBE4D
:10E08000CFEFD0E1DEBFCDBF13E0A0E0B1E0E8E12B
:10E09000FBEE02C005900D92AA32B107D9F714E049
:10E0A000AAE2B3E001C01D92A13CB107E1F70E94D2
:10E0B000BA740C948A750C940070AB0120E830E0BF
:10E0C000BC0180EA0C94A773AB0120E830E0BC01EE
:10E0D00080EA0C940473CF9323E0FC012093570053
:10E0E000E89507B600FCFDCF20E030E0C1E0FB0181
:10E0F000E20FF31FA081518140E0FA01EA0FF11D08
:10E10000DF01F9010D01C0935700E89511242E5F3E
:10E110003F4F2115F1E03F0751F725E0FC01209327
:10E120005700E89507B600FCFDCF81E180935700CA
:10E13000E895CF910895089580912A03882329F0C6
:10E14000439A469A10922A0308954398469881E08C
:10E1500080932A0308951F93CF93DF9300D000D0BC
:10E1600000D0CDB7DEB71C821B8210922E03109216
:10E170002D031A8219821E821D8210E052C0AB81CB
:10E18000BC81ED81FE81E491A155BC4FEC93EB8104
:10E19000FC81E155FC4F8081180F8B819C81019699
:10E1A0009C838B838D819E818F7799278F379105F3
:10E1B00099F580E191E00E94707489819A810196BD
:10E1C0009A8389830E947C7485E291E00E94707436
:10E1D00080EC91E00E947C7486EB91E00E94707468
:10E1E0001C821B8280912D0390912E036FEA73E0B5
:10E1F0000E945D70811104C088E291E00E947074F9
:10E2000080912D0390912E0380589F4F90932E0361
:10E2100080932D030E949C708D819E8101969E8328
:10E220008D838D819E818115904E08F4A8CF40E4A6
:10E2300050E060E070E08FEA93E00E947A751093FE
:10E24000BE036FEA73E080E090EE0E945D70269658
:10E250000FB6F894DEBF0FBECDBFDF91CF911F91F7
:10E2600008951F93CF93DF93CDB7DEB728970FB6EE
:10E27000F894DEBF0FBECDBF10922E0310922D0377
:10E280008CE391E00E9470741C821B8210E02CC011
:10E2900080912D0390912E036FEA73E00E946470C9
:10E2A00080912D0390912E0380589F4F90932E03C1
:10E2B00080932D031E821D820BC0ED81FE81E155EE
:10E2C000FC4F8081180F8D819E8101969E838D83E6
:10E2D0008D819E818038910580F30E949C708B8196
:10E2E0009C8101969C838B838B819C81803C914097
:10E2F00078F210922E0310922D0310922C0310929C
:10E300002B031A8219826FE273E080E090EE0E9484
:10E31000647080913E03811367C085E591E00E949F
:10E32000707418861F8259C060912D0370912E035E
:10E3300020E830E04FEA53E080EA0E9404738091C5
:10E340002D0390912E0380589F4F90932E0380931E
:10E350002D0360912D0370912E0320E830E04FE2F1
:10E3600054E080EA0E94047380912D0390912E0363
:10E3700080589F4F90932E0380932D038DE791E05B
:10E380000E94707489819A8101969A8389830E9480
:10E390007C7485E291E00E94707480EE90E00E94AF
:10E3A0007C7486EB91E00E94707480912B039091B5
:10E3B0002C036FEA73E00E946B7080912B039091A5
:10E3C0002C03939590932C0380932B030E949C70B5
:10E3D0008F819885019698878F838F819885803E5D
:10E3E000910508F4A1CF04C08CE991E00E947074FB
:10E3F00028960FB6F894DEBF0FBECDBFDF91CF9148
:10E400001F91089511B814B888E487B91AB810B8E4
:10E4100013B816B819B888B9089589EB91E00E942D
:10E4200070748DEC91E00E9470748AE991E00E9412
:10E43000707486ED91E00E94707486EB91E00C940C
:10E4400070740E9402720E9407740E944974F894CA
:10E450000895CF93DF9300D000D0CDB7DEB71A82F6
:10E4600019820AC08B819C8101969C838B83898150
:10E470009A8101969A83898389819A8197FDF2CF47
:10E480000F900F900F900F90DF91CF910895109201
:10E49000C00488B18C7F88B9389839980C94297257
:10E4A000CF93DF931F92CDB7DEB7882311F0399851
:10E4B00001C0399A89830E94297238980E94297272
:10E4C000389A0E94297289818111399A0F90DF91BF
:10E4D000CF910C942972CF9339980E942972389861
:10E4E0000E942972C6B1389A0E942972C1FB8827FE
:10E4F00080F9CF9108951092C004399A0E94297230
:10E50000389A0C94297238980E94297239980C9480
:10E510002972CF93DF931F92CDB7DEB789830E9414
:10E5200029720E94837289818093C0040F90DF91C9
:10E53000CF910895CF93DF93D82FC8E08D2F8078A7
:10E540000E945072DD0FC150C9F7DF91CF910C943A
:10E550006B721F93CF93DF93182FD8E0C0E0CC0FDE
:10E560000E946B72C82BD150D1F7112311F080E0BB
:10E5700001C081E00E9450720E9429728C2FDF91AD
:10E58000CF911F9108950F931F93CF93DF931F9205
:10E59000CDB7DEB7182F062F79830E947B72812FAB
:10E5A0008E7F0E949A72798181111BC0872F0E94F1
:10E5B0009A72882331F0399A81E00E94897280E052
:10E5C0001DC0802F0E949A728111F5CF38980E9449
:10E5D00029720E947B72812F81600E949A72882327
:10E5E00019F0399A82E0E9CF80E00E94A972399A45
:10E5F00089830E9429720E94837289810F90DF9122
:10E60000CF911F910F910895AF92BF92CF92DF9259
:10E61000EF92FF920F931F93CF93DF931F92CDB78B
:10E62000DEB7D82EC62E8A01790179830E947B72CB
:10E630008D2D8E7F0E949A727981811123C0872F40
:10E640000E949A72882331F0399A81E00E9489727F
:10E6500080E030C08C2D0E949A728111F5CF3898DD
:10E660000E9429720E947B728D2D81600E949A7295
:10E67000811108C0580100E010E0670181E0C81A6C
:10E68000D1080FC0399A82E0E1CF81E00C151D0559
:10E6900009F480E00E94A972F50181935F010F5F88
:10E6A0001F4F0E151F0589F7399A0E9429720E9483
:10E6B000837281E00F90DF91CF911F910F91FF90B6
:10E6C000EF90DF90CF90BF90AF9008950F931F937E
:10E6D000CF93DF9300D0CDB7DEB7062F142F7A8308
:10E6E00089830E947B7289818E7F0E949A727A81CF
:10E6F000882319F0399A82E007C0872F0E949A7206
:10E70000882351F0399A81E00F900F90DF91CF91DB
:10E710001F910F910C948972802F0E949A7281111F
:10E72000F1CF812F0E949A72399A882311F083E0E9
:10E73000EBCF0E9429720E94837286E090E00F90D6
:10E740000F90DF91CF911F910F910C942074BF9285
:10E75000CF92DF92EF92FF920F931F93CF93DF93AD
:10E76000B82E6A018901EB01C61AD70A0BC020E452
:10E7700030E0A701BE018B2D0E94A773C05CDF4F64
:10E78000005411097601EC0EFD1E0134110578F7D5
:10E790000E947B728B2D8E7F0E949A72882319F0C3
:10E7A000399A82E007C08D2F0E949A72882331F037
:10E7B000399A81E00E94897280E01FC08C2F0E94EC
:10E7C0009A728111F5CFCE2DDF2D0C0F1D1F08C0C1
:10E7D00089910E949A72882319F0399A83E0EACFCE
:10E7E000C017D107A9F7399A0E9429720E94837233
:10E7F00086E090E00E94207481E0DF91CF911F912C
:10E800000F91FF90EF90DF90CF90BF9008951092FE
:10E81000800082E08093810016BA089524E026BB30
:10E820004FB7F8942091840030918500820F931F98
:10E8300090938B0080938A004FBFB29BFECF0895C8
:10E840000F931F93CF93DF938C01C0E0D0E005C0FE
:10E8500084EC99E00E940E742196C017D107C1F78D
:10E86000DF91CF911F910F9108951F920F920FB6D4
:10E870000F9211240F900FBE0F901F9018951F92AA
:10E880000F920FB60F9211240F900FBE0F901F9092
:10E8900018951092C5008CE08093C40088E18093A5
:10E8A000C10086E08093C20008959091C00095FF5A
:10E8B000FCCF8093C6000895CF93C82FA82FA295B0
:10E8C000AF70B0E0A050BF4F8C910E945574CF70D4
:10E8D000EC2FF0E0E050FF4F8081CF910C94557405
:10E8E000CF93DF93EC0102C00E945574899181118E
:10E8F000FBCFDF91CF910895CF93DF93813127E252
:10E90000920768F160E177E20E946675EC01862F5C
:10E91000805D0E945574CE0168EE73E00E946675BA
:10E92000EC01862F805D0E945574CE0164E670E094
:10E930000E946675EC01862F805D0E945574CE01A1
:10E940006AE070E00E946675EC01862F805D0E948F
:10E950005574CE01805DDF91CF910C945574883E43
:10E9600023E09207C8F68436910500F78A309105B6
:10E9700038F7F0CF0E9421720E940D7287E08093D9
:10E98000AF0410922C0310922B0310922E031092BE
:10E990002D036FE273E080E090EE0E9464708823A4
:10E9A00009F452C040E150E060E070E080EB94E098
:10E9B0000E947A754091B0045091B1046091B20404
:10E9C0007091B30480912F0390913003A091310393
:10E9D000B0913203481759076A077B0789F52091E0
:10E9E000B4043091B5048091330390913403281717
:10E9F000390721F52091B6043091B7048091350391
:10EA00009091360328173907C9F42091B804309142
:10EA1000B90480913703909138032817390771F4AE
:10EA20009091BA0480913903981302C085E009C01F
:10EA3000981710F486E005C084E003C083E001C0AD
:10EA400082E08093AF0402C01092AF048091AF04C3
:10EA5000833091F028F4882349F0823071F509C0A1
:10EA6000853079F0D8F0863041F51FC082EE91E014
:10EA700005C08FEF91E014C08CE392E00E947074A7
:10EA80001CC087E692E00E9470744698439888EE16
:10EA900093E00E942074469A439A0FC084E992E062
:10EAA0000E9470740E94AB7008C087ED92E00E94D3
:10EAB0007074469843980E9431718BE193E00E94F4
:10EAC00070740C94000080E090E00895AA1BBB1BBA
:10EAD00051E107C0AA1FBB1FA617B70710F0A61B5E
:10EAE000B70B881F991F5A95A9F780959095BC017F
:10EAF000CD010895DC01CB01FC01F999FECF06C0E0
:10EB0000F2BDE1BDF89A319600B40D9241505040EB
:08EB1000B8F70895F894FFCF57
:10EB1800303132333435363738396162636465668B
:10EB2800436F707920746F20415432342C66696EBB
:10EB380069736820006F6600577269746520626C9B
:10EB48006F636B206572726F720D0A004352432027
:10EB580073756D20706C65617365207761697420C9
:10EB68002E2E0D0A00546865204154323443206922
:10EB780073206E6577206E656564207570646174B6
:10EB88006520736F6674776172650D0A005570644D
:10EB980061746520666C6173682066726F6D2041D0
:10EBA8005432342C66696E697368200043524320DE
:10EBB80053756D2062616420706C656173652063B4
:10EBC8006865636B20200D0A000D0A20546869737C
:10EBD80020697320626F6F74203A0D0A0031353A4C
:10EBE80030303A3435004E6F7620313120323031B2
:10EBF800330065787465726E616C20454550524FDC
:10EC08004D20206E6F7420666F756E640D0A005477
:10EC180068652065787465726E616C204545505250
:10EC28004F4D20697320656D7074792C636F70790E
:10EC380020666C61736820746F2065787465726EE5
:10EC4800616C20454550524F4D0D0A0054686520AF
:10EC580065787465726E616C20454550524F4D2041
:10EC68006E6F7420666F7220746869732070726F9B
:10EC78006A6563740D0A0054686520766572736965
:10EC88006F6E206172652073616D6520736F206EF1
:10EC98006F7468696E67206E65656420746F2064A0
:10ECA8006F0D0A005468652065787465726E616C32
:10ECB80020454550524F4D2076657273696F6E201E
:10ECC8006973206C6F772C636F707920666C617341
:10ECD8006820746F2065787465726E616C20454594
:10ECE80050524F4D0D0A005468652065787465725E
:10ECF8006E616C20454550524F4D207665727369A0
:10ED08006F6E20697320686967682C636F7079205B
:10ED180065787465726E616C20454550524F4D2080
:10ED2800746F20666C6173680D0A00426F6F7420FF
:0AED380069732066696E6973680054
:040000030000E00019
:00000001FF
